:020000040800F2
:1000000000000220E9180008BD140008C51400080B
:10001000CD140008D5140008DD140008000000000D
:10002000000000000000000000000000115E000859
:10003000E51400080000000061600008953A00081F
:100040003919000839190008391900083919000848
:100050003919000839190008F51400083919000881
:100060003919000839190008391900083919000828
:100070003919000839190008391900083919000818
:100080003919000839190008391900080000000062
:100090000000000000000000000000003919000806
:1000A0003919000815150008391900083919000810
:1000B00029150008391900083919000839190008EC
:1000C00039190008391900083919000839190008C8
:1000D0003919000839190008391900080000000012
:1000E0003919000839190008391900080000000002
:1000F00000000000000000000000000039190008A6
:1001000000000000391900083919000839190008E1
:1001100000000000000000000000000000000000DF
:100120003919000839190008391900083919000867
:100130003919000800000000000000000000000065
:100140000000000000000000000000003919000855
:100150003919000839190008391900083919000837
:1001600039190008391900080000000000000000DB
:10017000000000000000000000000000000000007F
:100180000000000039190008000000000000000015
:080190003919000839190008B3
:1001A00010B5054C237833B9044B13B10448AFF3B1
:1001B00000800123237010BDDC010020000000003E
:1001C0007CAD000808B5034B1BB103490348AFF3EE
:1001D000008008BD00000000E00100207CAD0008A8
:1001E00001F0FF01102A2BDB10F0070F08D010F8E8
:1001F000013B013A8B422DD010F0070F42B3F6D1EC
:10020000F0B441EA012141EA014122F007047FF004
:1002100000070023F0E80256083C85EA010586EA5B
:10022000010685FA47F5A3FA87F586FA47F6A5FA97
:1002300087F68EB9EED1F0BC01F0FF0102F00702A3
:1002400032B110F8013B013A83EA010313B1F8D14E
:100250000020704701387047002D06BF354603382F
:10026000073815F0010F07D1013015F4807F02BF68
:10027000013015F4C03F0130F0BC0138704700BFB9
:10028000034613F8012B002AFBD1181A01387047D6
:1002900081F0004102E000BF83F0004330B54FEA37
:1002A00041044FEA430594EA050F08BF90EA020FA4
:1002B0001FBF54EA000C55EA020C7FEA645C7FEA37
:1002C000655C00F0E2804FEA5454D4EB5555B8BF5A
:1002D0006D420CDD2C4480EA020281EA030382EACB
:1002E000000083EA010180EA020281EA0303362D5D
:1002F00088BF30BD11F0004F4FEA01314FF4801C30
:100300004CEA113102D0404261EB410113F0004F41
:100310004FEA03334CEA133302D0524263EB4303F8
:1003200094EA050F00F0A780A4F10104D5F1200E96
:100330000DDB02FA0EFC22FA05F2801841F10001F1
:1003400003FA0EF2801843FA05F359410EE0A5F1C5
:1003500020050EF1200E012A03FA0EFC28BF4CF0F6
:10036000020C43FA05F3C01851EBE37101F00045AC
:1003700007D54FF0000EDCF1000C7EEB00006EEBB9
:100380000101B1F5801F1BD3B1F5001F0CD3490843
:100390005FEA30004FEA3C0C04F101044FEA44529A
:1003A00012F5800F80F09A80BCF1004F08BF5FEA21
:1003B000500C50F1000041EB045141EA050130BD01
:1003C0005FEA4C0C404141EB0101013C28BFB1F513
:1003D000801FE9D291F0000F04BF01460020B1FA5E
:1003E00081F308BF2033A3F10B03B3F120020CDA31
:1003F0000C3208DD02F1140CC2F10C0201FA0CF00F
:1004000021FA02F10CE002F11402D8BFC2F1200C73
:1004100001FA02F120FA0CFCDCBF41EA0C01904029
:10042000E41AA2BF01EB0451294330BD6FEA040472
:100430001F3C1CDA0C340EDC04F11404C4F120025D
:1004400020FA04F001FA02F340EA030021FA04F36F
:1004500045EA030130BDC4F10C04C4F1200220FAC6
:1004600002F001FA04F340EA0300294630BD21FA04
:1004700004F0294630BD94F0000F83F4801306BFCA
:1004800081F480110134013D4EE77FEA645C18BFBE
:100490007FEA655C29D094EA050F08BF90EA020F55
:1004A00005D054EA000C04BF1946104630BD91EA4D
:1004B000030F1EBF0021002030BD5FEA545C05D150
:1004C0004000494128BF41F0004130BD14F580048F
:1004D0003CBF01F5801130BD01F0004545F0FE4103
:1004E00041F470014FF0000030BD7FEA645C1ABF38
:1004F000194610467FEA655C1CBF0B46024650EA6F
:10050000013406BF52EA033591EA030F41F400219A
:1005100030BD00BF90F0000F04BF0021704730B520
:100520004FF4806404F132044FF000054FF00001F5
:1005300050E700BF90F0000F04BF0021704730B5B6
:100540004FF4806404F1320410F0004548BF40428B
:100550004FF000013EE700BF42004FEAE2014FEAE0
:1005600031014FEA02701FBF12F07F4393F07F4FBB
:1005700081F06051704732F07F4208BF704793F0BE
:100580007F4F04BF41F40021704730B54FF46074D1
:1005900001F0004521F000411CE700BF50EA0102D4
:1005A00008BF704730B54FF000050AE050EA01027D
:1005B00008BF704730B511F0004502D5404261EBED
:1005C00041014FF4806404F132045FEA915C3FF42E
:1005D000D8AE4FF003025FEADC0C18BF03325FEACB
:1005E000DC0C18BF033202EBDC02C2F1200300FA7C
:1005F00003FC20FA02F001FA03FE40EA0E0021FAA1
:1006000002F11444BDE600BF70B54FF0FF0C4CF48E
:10061000E06C1CEA11541DBF1CEA135594EA0C0F40
:1006200095EA0C0F00F0DEF82C4481EA030621EA7B
:100630004C5123EA4C5350EA013518BF52EA0335B6
:1006400041F4801143F4801338D0A0FB02CE4FF068
:100650000005E1FB02E506F00042E0FB03E54FF098
:100660000006E1FB03569CF0000F18BF4EF0010E90
:10067000A4F1FF04B6F5007F64F5407404D25FEA8C
:100680004E0E6D4146EB060642EAC62141EA55513F
:100690004FEAC52040EA5E504FEACE2EB4F1FD0C81
:1006A00088BFBCF5E06F1ED8BEF1004F08BF5FEAFF
:1006B000500E50F1000041EB045170BD06F00046B1
:1006C00046EA010140EA020081EA0301B4EB5C045E
:1006D000C2BFD4EB0C0541EA045170BD41F4801156
:1006E0004FF0000E013C00F3AB8014F1360FDEBF7B
:1006F000002001F0004170BDC4F10004203C35DA57
:100700000C341BDC04F11404C4F1200500FA05F3D9
:1007100020FA04F001FA05F240EA020001F000427A
:1007200021F0004110EBD37021FA04F642EB0601F0
:100730005EEA430E08BF20EAD37070BDC4F10C041A
:10074000C4F1200500FA04F320FA05F001FA04F2DE
:1007500040EA020001F0004110EBD37041F10001CA
:100760005EEA430E08BF20EAD37070BDC4F12005D5
:1007700000FA05F24EEA020E20FA04F301FA05F23D
:1007800043EA020321FA04F001F0004121FA04F2E5
:1007900020EA020000EBD3705EEA430E08BF20EAB5
:1007A000D37070BD94F0000F0FD101F000464000EF
:1007B00041EB010111F4801F08BF013CF7D041EA71
:1007C000060195F0000F18BF704703F00046520075
:1007D00043EB030313F4801F08BF013DF7D043EA46
:1007E0000603704794EA0C0F0CEA135518BF95EAFC
:1007F0000C0F0CD050EA410618BF52EA4306D1D183
:1008000081EA030101F000414FF0000070BD50EAA1
:10081000410606BF1046194652EA430619D094EA2B
:100820000C0F02D150EA013613D195EA0C0F05D115
:1008300052EA03361CBF104619460AD181EA030169
:1008400001F0004141F0FE4141F470014FF0000021
:1008500070BD41F0FE4141F4780170BD70B54FF0BC
:10086000FF0C4CF4E06C1CEA11541DBF1CEA13553C
:1008700094EA0C0F95EA0C0F00F0A7F8A4EB05041E
:1008800081EA030E52EA03354FEA013100F0888015
:100890004FEA03334FF0805545EA131343EA1263DE
:1008A0004FEA022245EA111545EA10654FEA002693
:1008B0000EF000419D4208BF964244F1FD0404F54C
:1008C000407402D25B084FEA3202B61A65EB0305A8
:1008D0005B084FEA32024FF480104FF4002CB6EB65
:1008E000020E75EB030E22BFB61A754640EA0C00E5
:1008F0005B084FEA3202B6EB020E75EB030E22BF25
:10090000B61A754640EA5C005B084FEA3202B6EB65
:10091000020E75EB030E22BFB61A754640EA9C0024
:100920005B084FEA3202B6EB020E75EB030E22BFF4
:10093000B61A754640EADC0055EA060E18D04FEAB2
:10094000051545EA16754FEA06164FEAC30343EA52
:1009500052734FEAC2025FEA1C1CC0D111F4801F1F
:100960000BD141EA00014FF000004FF0004CB6E718
:1009700011F4801F04BF01430020B4F1FD0C88BFB7
:10098000BCF5E06F3FF6AFAEB5EB030C04BFB6EBC2
:10099000020C5FEA500C50F1000041EB045170BDB5
:1009A0000EF0004E4EEA113114EB5C04C2BFD4EBE2
:1009B0000C0541EA045170BD41F480114FF0000E66
:1009C000013C90E645EA060E8DE60CEA135594EAE2
:1009D0000C0F08BF95EA0C0F3FF43BAF94EA0C0FE5
:1009E0000AD150EA01347FF434AF95EA0C0F7FF45A
:1009F00025AF104619462CE795EA0C0F06D152EAAE
:100A000003353FF4FDAE1046194622E750EA410691
:100A100018BF52EA43067FF4C5AE50EA41047FF4A2
:100A20000DAF52EA43057FF4EBAE12E74FF0FF3C07
:100A300006E000BF4FF0010C02E000BF4FF0010CD8
:100A40004DF804CD4FEA410C7FEA6C5C4FEA430C51
:100A500018BF7FEA6C5C1BD001B050EA410C0CBFA0
:100A600052EA430C91EA030F02BF90EA020F002002
:100A7000704710F1000F91EA030F58BF994208BF69
:100A800090422CBFD8176FEAE37040F00100704726
:100A90004FEA410C7FEA6C5C02D150EA013C07D17D
:100AA0004FEA430C7FEA6C5CD6D152EA033CD3D0C8
:100AB0005DF8040B704700BF8446104662468C46C2
:100AC0001946634600E000BF01B5FFF7B7FF0028F5
:100AD00048BF10F1000F01BD4DF808EDFFF7F4FF1E
:100AE0000CBF012000205DF808FB00BF4DF808EDA9
:100AF000FFF7EAFF34BF012000205DF808FB00BFCC
:100B00004DF808EDFFF7E0FF94BF012000205DF8ED
:100B100008FB00BF4DF808EDFFF7CEFF94BF0120A2
:100B200000205DF808FB00BF4DF808EDFFF7C4FF9B
:100B300034BF012000205DF808FB00BF4FEA410CE4
:100B40007FEA6C5C02D150EA013C0AD14FEA430CC7
:100B50007FEA6C5C02D152EA033C02D14FF0000004
:100B600070474FF0010070474FEA410212F5001242
:100B700015D211D56FF47873B3EB625212D94FEAE4
:100B8000C12343F0004343EA505311F0004F23FACE
:100B900002F018BF404270474FF00000704750EA23
:100BA000013005D111F0004008BF6FF000407047E0
:100BB0004FF00000704700BF4A0011D212F500123A
:100BC00011D20DD56FF47873B3EB62520ED44FEAA5
:100BD000C12343F0004343EA505323FA02F0704725
:100BE0004FF00000704750EA013002D14FF0FF3063
:100BF00070474FF0000070474FEA4102B2F1E04306
:100C000024BFB3F5001CDCF1FE5C0DD901F0004CF3
:100C10004FEAC0024CEA5070B2F1004F40EB830043
:100C200008BF20F00100704711F0804F21D113F16F
:100C30003872BCBF01F00040704741F480114FEAA8
:100C40005252C2F11802C2F1200C10FA0CF320FA31
:100C500002F018BF40F001004FEAC1234FEAD3234E
:100C600003FA0CFC40EA0C0023FA02F34FEA4303B8
:100C7000CCE77FEA625307D150EA01331EBF4FF041
:100C8000FE4040F44000704701F0004040F0FE405C
:100C900040F40000704700BF53B94AB9002908BFAB
:100CA00000281CBF4FF0FF314FF0FF3000F0A0B91B
:100CB000ADF1080C6DE904CE00F03CF8DDF804E07D
:100CC000DDE9022304B0704738B500220023044652
:100CD0000D46FFF70BFF28B920462946BDE83840EE
:100CE00000F00AB8204605F1004100F005F8404246
:100CF00061EB410138BD00BFD0B50C4B0022064668
:100D00000F46FFF781FCFFF757FF0446FFF702FC91
:100D1000074B0022FFF778FC02460B463046394667
:100D2000FFF7BAFAFFF748FF2146D0BD0000F03DBB
:100D30000000F0412DE9F047089D0C46002B4ED1F4
:100D400094468C458646B2FA82F262D94AB1C2F123
:100D50002003914020FA03F30CFA02FC194300FA35
:100D600002FE4FEA1C471FFA8CF6B1FBF7F44FEA7C
:100D70001E4307FB141143EA014304FB06F19942A9
:100D80000AD91CEB030304F1FF3080F01281994271
:100D900040F20F81023C6344591A1FFA8EF3B1FBF3
:100DA000F7F007FB101143EA014300FB06F69E42F1
:100DB0000AD91CEB030300F1FF3180F0FC809E4256
:100DC00040F2F980634402389B1B40EA0440002152
:100DD0001DB1D3400022C5E90032BDE8F0878B4247
:100DE00005D90DB1C5E9000100210846F5E7B3FAC0
:100DF00083F1002946D1A34202D39042C0F0F08093
:100E0000861A64EB03030120002DE6D0C5E90063D8
:100E1000E3E7002A40F09080A1EB0C044FEA1C4865
:100E20001FFA8CF70121B4FBF8F64FEA1E4308FBCA
:100E3000164443EA044307FB06F0984208D91CEB2A
:100E4000030306F1FF3402D2984200F2CD80264619
:100E50001C1A1FFA8EF3B4FBF8F008FB104443EAA7
:100E6000044300FB07F79F4208D91CEB030300F182
:100E7000FF3402D29F4200F2B0802046DB1B40EAE2
:100E80000640A5E7C1F120068B4022FA06F71F4372
:100E900020FA06FC04FA01F343EA0C03F44000FADA
:100EA00001F8380C4FEA1349B4FBF0FE1FFA87FC37
:100EB00000FB1E4449EA04440EFB0CF9A14502FA6A
:100EC00001F20AD93C190EF1FF3A80F08480A14565
:100ED00040F28180AEF1020E3C44A4EB09041FFAFB
:100EE00083F9B4FBF0F300FB134449EA044403FB29
:100EF0000CFCA44507D93C1903F1FF3067D2A44587
:100F000065D9023B3C4443EA0E40A0FB0293A4EBAC
:100F10000C049C42CE469C4651D34ED055B1B8EB02
:100F20000E0364EB0C0404FA06F6CB401E43CC40DF
:100F3000C5E90064002150E7C2F1200320FA03F163
:100F40000CFA02FC24FA03F394400C434FEA1C48C9
:100F500000FA02FE1FFA8CF7B3FBF8F008FB103121
:100F6000230C43EA014300FB07F1994208D91CEB2B
:100F7000030300F1FF362CD299422AD90238634488
:100F80005B1AA4B2B3FBF8F108FB113344EA034443
:100F900001FB07F3A34208D91CEB040401F1FF365F
:100FA00013D2A34211D902396444E41A41EA004140
:100FB00039E70446F0E6084606E7C845AED2B9EB85
:100FC000020E63EB070C0138A8E73146EDE7034654
:100FD00099E73046D4E7D6467FE7634402384DE7C9
:100FE0000646234608460FE7023E634430E700BF4B
:100FF000704700BF80B582B002AF104A0021104890
:1010000002F0ACFD03460F4A13600F4B0193192306
:10101000009300234FF400720C490D4803F0AEFC1E
:101020000C4B01931723009300234FF400720A49DD
:101030000A4803F0A3FC00BFBD4680BDC0B0000855
:1010400061100008F8010020D8020020A4AD0008BB
:10105000B51A0008F8020020B0AD0008F91B00081E
:1010600090B585B000AF78600123FB730023BB739C
:10107000274B1B68002BFBD0254B1B6807F10F018A
:101080004FF0FF32184603F0C9F90346012BEFD1A8
:10109000FB7B013B052B21D801A252F823F000BFB6
:1010A000B9100008BF100008C5100008CB100008D8
:1010B000D1100008D71000080023BB730FE00123F4
:1010C000BB730CE00323BB7309E00423BB7306E08E
:1010D0000523BB7303E00623BB7300E000BFFB7B6B
:1010E0001C4603F0A5FE03461A462146094806F0B1
:1010F00099F9094B186807F10E010023002202F04C
:10110000EDFF0346012BB3D1044806F0F3F9AFE736
:10111000DC020020BCAD0008FC020020E0AD0008AD
:1011200080B58AB000AF07F1140300221A605A603C
:101130009A60DA601A6100233B613C4B1B6B3B4AAF
:1011400043F004031363394B1B6B03F004033B614F
:101150003B690023FB60354B1B6B344A43F0800333
:101160001363324B1B6B03F08003FB60FB680023AF
:10117000BB602E4B1B6B2D4A43F0010313632B4BBB
:101180001B6B03F00103BB60BB6800237B60274B34
:101190001B6B264A43F002031363244B1B6B03F0C3
:1011A00002037B607B6800224FF40051204801F06D
:1011B00073F800224FF480511E4801F06DF84FF48F
:1011C00000537B610123BB610023FB6100233B6271
:1011D00007F114031946164800F0C2FE01237B6193
:1011E0004FF44413BB610123FB6107F1140319465B
:1011F000114800F0B5FE4FF480537B610123BB61C1
:101200000223FB6103233B6207F1140319460948DB
:1012100000F0A6FE00220521062000F077FE062041
:1012200000F090FE00BF2837BD4680BD0038024068
:1012300000080240000402400000024080B500AFF8
:1012400000F06AFD00F014F8FFF76AFF00F0C2FA40
:1012500000F04CFA054801F045FD02F035FCFFF7BF
:10126000C9FE02F055FC00BFFDE700BF48020020A8
:1012700080B594B000AF07F120033022002118465A
:1012800006F038FA07F10C0300221A605A609A60DF
:10129000DA601A610023BB60274B1B6C264A43F0BF
:1012A00080531364244B1B6C03F08053BB60BB68FA
:1012B00000237B60214B1B68204A43F440431360AA
:1012C0001E4B1B6803F440437B607B6802233B6238
:1012D0000123FB6210233B630223BB630023FB63F8
:1012E00008233B6464237B640223BB640423FB6404
:1012F00007F12003184601F01BF80346002B01D02C
:1013000000F038F80F23FB6002233B6100237B6170
:101310004FF48053BB610023FB6107F10C030321F1
:10132000184601F07DFA0346002B01D000F022F8A8
:1013300000BF5037BD4680BD0038024000700040FD
:1013400080B582B000AF78607B681B68084A934222
:1013500002D100F003FD06E07B681B68B3F1804F0B
:1013600001D100F0C5FC00BF0837BD4680BD00BFFD
:101370000000014080B400AF72B600BF00BFFDE7BF
:1013800080B582B000AF00237B60124B5B6C114ACA
:1013900043F4804353640F4B5B6C03F480437B60E6
:1013A0007B6800233B600B4B1B6C0A4A43F0805365
:1013B0001364084B1B6C03F080533B603B680022B6
:1013C0000F216FF0010000F0A1FD00BF0837BD46FE
:1013D00080BD00BF0038024080B58CB000AF78609F
:1013E0000023BB6200237B620023BB602E4B5B6C3F
:1013F0002D4A43F0010353642B4B5B6C03F0010354
:10140000BB60BB6807F10C0207F1100311461846D8
:1014100001F0E6FB01F0D0FBB862BB6A234AA2FBF5
:1014200003239B0C013B7B62214B224A1A60204B19
:1014300040F2E732DA601E4A7B6A53601C4B00229E
:101440001A611B4B00229A60194B00229A611848BE
:1014500001F0F8FB034687F82F3097F82F30002B68
:101460001BD1134801F03EFC034687F82F3097F854
:101470002F30002B11D1192000F064FD7B680F2B59
:1014800008D800227968192000F040FD0A4A7B68DC
:10149000136002E0012387F82F3097F82F301846A9
:1014A0003037BD4680BD00BF0038024083DE1B439D
:1014B000FC010020000001400800002080B400AFC3
:1014C00000BFFDE780B400AF00BFFDE780B400AF10
:1014D00000BFFDE780B400AF00BFFDE780B400AF00
:1014E00000BFFDE780B400AF00BFBD465DF8047BE0
:1014F0007047000080B500AF01224FF480510448CE
:1015000000F0CAFE012000F0FBFE00BF80BD00BF5E
:101510000004024080B500AF024801F045FC00BF66
:1015200080BD00BFFC01002080B500AF024801F083
:101530003BFC00BF80BD00BF4802002080B400AF6C
:1015400001231846BD465DF8047B704780B582B024
:1015500000AF7860396006F01FF9034616221A6062
:101560004FF0FF3318460837BD4680BD80B582B0C6
:1015700000AF78604FF0FF317868FFF7E7FF00BFFA
:10158000FDE780B586B000AFF860B9607A600023EF
:101590007B610AE0AFF300800146BB685A1CBA6069
:1015A000CAB21A707B6901337B617A697B689A429F
:1015B000F0DB7B6818461837BD4680BD80B586B025
:1015C00000AFF860B9607A6000237B6109E0BB6816
:1015D0005A1CBA601B78184600F06EF97B6901331B
:1015E0007B617A697B689A42F1DB7B681846183721
:1015F000BD4680BD80B483B000AF78604FF0FF334C
:1016000018460C37BD465DF8047B704780B483B044
:1016100000AF786039603B684FF400525A60002395
:1016200018460C37BD465DF8047B704780B483B024
:1016300000AF7860012318460C37BD465DF8047B87
:10164000704780B485B000AFF860B9607A6000235D
:1016500018461437BD465DF8047B704780B586B0E8
:1016600000AF7860144A154BD31A7B617B693B61EC
:10167000134B1B68002B02D1114B124A1A60104BFE
:101680001A687B6813443A699A4207D206F084F8D4
:1016900003460C221A604FF0FF3309E0084B1B6829
:1016A000FB60074B1A687B681344054A1360FB68AC
:1016B00018461837BD4680BD000002200004000017
:1016C00044020020A84D002080B400AF064BD3F8A0
:1016D0008830054A43F47003C2F8883000BFBD4625
:1016E0005DF8047B704700BF00ED00E080B586B078
:1016F00000AF07F1080300221A605A609A60DA60AE
:101700003B4600221A605A601E4B4FF080421A601E
:101710001C4B42F20F725A601A4B00229A60194B0E
:1017200040F2E732DA60174B00221A61154B802233
:101730009A61144801F086FA0346002B01D0FFF7A6
:1017400019FE4FF48053BB6007F1080319460D489A
:1017500001F01AFC0346002B01D0FFF70BFE00231B
:101760003B6000237B603B461946064801F022FEA1
:101770000346002B01D0FFF7FDFD00BF1837BD4623
:1017800080BD00BF4802002080B584B000AF786003
:101790007B681B68B3F1804F15D10023FB600C4BB5
:1017A0001B6C0B4A43F001031364094B1B6C03F0E1
:1017B0000103FB60FB68002205211C2000F0A6FB52
:1017C0001C2000F0BFFB00BF1037BD4680BD00BF2E
:1017D0000038024080B500AF114B124A1A60104B1E
:1017E0004FF4E1325A600E4B00229A600C4B0022FB
:1017F000DA600B4B00221A61094B0C225A61084B2C
:1018000000229A61064B0022DA61054801F054FE7D
:101810000346002B01D0FFF7ADFD00BF80BD00BF28
:10182000900200200010014080B58AB000AF7860BF
:1018300007F1140300221A605A609A60DA601A6194
:101840007B681B68194A93422CD100233B61184BDB
:101850005B6C174A43F010035364154B5B6C03F049
:1018600010033B613B690023FB60114B1B6B104A6B
:1018700043F0010313630E4B1B6B03F00103FB608A
:10188000FB684FF4C0637B610223BB610023FB61F3
:1018900003233B6207237B6207F1140319460548C3
:1018A00000F05EFB00BF2837BD4680BD0010014040
:1018B000003802400000024080B483B000AF78607E
:1018C00000BF084B1B6803F04003002BF9D07B6876
:1018D000DAB2044B5A607B6818460C37BD465DF897
:1018E000047B704700100140DFF834D0FFF7ECFEB6
:1018F0000C480D490D4A002302E0D458C45004336B
:10190000C4188C42F9D30A4A0A4C002301E0136040
:101910000432A242FBD305F045FFFFF78FFC70476E
:101920000000022000000020DC01002038B5000883
:10193000DC010020A44D0020FEE7000080B582B04D
:1019400000AF4F4B1B79012B2FD14D4B1B683B60D8
:101950004C4B00221A704C4B1B683A68D31AB3F5F3
:10196000967F12D8474B1B78042B07D1454B1B7829
:10197000052B03D1434B1B78062B06D0434B1B781A
:101980000133DAB2414B1A7005E0404B01221A7064
:101990003D4A3B6813603E4A3B6813603C4B1B6802
:1019A00019463C4805F03EFD63E0354B1B79022BA0
:1019B0005FD1344B1B78002B5BD1314B1A68344B11
:1019C0001B68D31A7B607B68092B09D82D4B012239
:1019D0001A707968304805F025FD2A4B1B784AE0DB
:1019E0007B68B3F57A7F24D97B6841F288329342D1
:1019F00007D9244B06221A707968284805F012FD91
:101A000013E07B6840F6B832934207D91D4B05229C
:101A10001A707968224805F005FD06E0194B04228A
:101A20001A7079681F4805F0FDFC184B00221A70E7
:101A300019E0164B1B78012B0AD9124B03221A709E
:101A40007968194805F0EEFC104B00221A700AE084
:101A50000C4B02221A700A4B1B680B4A1360796800
:101A6000124805F0DFFC064B1B681946104805F0CC
:101A7000D9FC044B1B7818460837BD4680BD00BF13
:101A8000E002002004000020EC020020F002002010
:101A9000F402002000AE00082CAE000844AE00089E
:101AA0007CAE0008B4AE0008ECAE000824AF00081D
:101AB0005CAF000880B584B000AF78600123FB7391
:101AC000002201210A2002F0AAFA0346204A1360EC
:101AD000002208210A2002F0A2FA03461D4A1360E0
:101AE0001B4B1B68002B03D11B4805F003FD02E0D4
:101AF0001A4805F0FFFC174B1B684FF0FF321849DE
:101B0000184602F08BFC0346012B03D1154805F063
:101B1000F1FC02E0144805F0EDFCFFF70FFF03466F
:101B2000FB73FB7B002BE6D0094B186807F10F0114
:101B30000023642202F0D2FA0346012B03D10B48A2
:101B400005F0D8FCD7E70A4805F0D4FCD3E700BF7E
:101B5000DC020020E802002074AF0008A0AF0008FB
:101B6000E0020020D4AF0008FCAF00081CB0000861
:101B70003CB0000880B584B000AF0346FB80002372
:101B8000BB60FB881946174800F06EFB0346FB73E9
:101B9000FB7B002B01D1012200E00222124B1A71C3
:101BA00003F056F90346104A1360104B186807F10A
:101BB000080200230C4902F093FBBB68002B07D0FE
:101BC0000B4B4FF080521A60BFF34F8FBFF36F8FF4
:101BD00000224FF48051074800F05EFB00BF103731
:101BE000BD4680BD00000240E0020020E802002067
:101BF00004ED00E00004024080B584B000AF7860DE
:101C00000023FB7300220121052002F008FA03469D
:101C1000114A1360104B1B68002B03D10F4805F0CD
:101C200069FC02E00E4805F065FC0B4B1B6807F1F0
:101C30000F014FF0FF32184602F0F0FB0346012B74
:101C4000F3D1FB7B1946074805F0ECFBFB7B1846FC
:101C500000F00AF8E9E700BFFC02002058B00008D5
:101C600074B0000894B0000880B582B000AF03469D
:101C7000FB71FB79062B31D801A252F823F000BF8B
:101C8000DD1C00089D1C0008AB1C0008B91C0008E6
:101C9000C51C0008CD1C0008D51C000800224FF40C
:101CA0000051114800F0F8FA19E001224FF40051F8
:101CB0000D4800F0F1FA12E04FF400510A4800F02C
:101CC00004FB0CE0094B02221A7008E0074B0622C5
:101CD0001A7004E0054B14221A7000E000BF00BF28
:101CE0000837BD4680BD00BF000802400003002049
:101CF00080B500AF074B1B78002B08D00320FFF7FF
:101D0000B3FF044B1B78013BDAB2024B1A7000BFE1
:101D100080BD00BF0003002080B500AF0E4B1B68E4
:101D20000D4A43F4007313600B4B1B680A4A43F4DB
:101D300080631360084B1B68074A43F48073136089
:101D4000032000F0D8F80F20FFF746FBFFF718FB41
:101D50000023184680BD00BF003C024080B400AFA5
:101D6000064B1B781A46064B1B681344044A136043
:101D700000BFBD465DF8047B704700BF0C0000202B
:101D80000403002080B400AF034B1B681846BD4617
:101D90005DF8047B704700BF0403002080B485B069
:101DA00000AF78607B6803F00703FB600C4BDB68D7
:101DB000BB60BA684FF6FF031340BB60FB681A02B2
:101DC000BB68134343F0BF6343F40033BB60044A72
:101DD000BB68D36000BF1437BD465DF8047B704715
:101DE00000ED00E080B400AF044BDB681B0A03F099
:101DF00007031846BD465DF8047B704700ED00E020
:101E000080B483B000AF0346FB7197F90730002B15
:101E10000BDBFB7903F01F02074997F907305B09D9
:101E2000012000FA02F241F8232000BF0C37BD4622
:101E30005DF8047B704700BF00E100E080B483B030
:101E400000AF03463960FB7197F90730002B0ADBBE
:101E50003B68DAB20C4997F907301201D2B20B4451
:101E600083F800230AE03B68DAB20849FB7903F003
:101E70000F03043B1201D2B20B441A7600BF0C3799
:101E8000BD465DF8047B704700E100E000ED00E036
:101E900080B489B000AFF860B9607A60FB6803F085
:101EA0000703FB61FB69C3F10703042B28BF04236D
:101EB000BB61FB690433062B02D9FB69033B00E0DD
:101EC00000237B614FF0FF32BB6902FA03F3DA4370
:101ED000BB681A407B699A404FF0FF317B6901FA79
:101EE00003F3D9437B680B40134318462437BD46A0
:101EF0005DF8047B704780B582B000AF7860786889
:101F0000FFF74CFF00BF0837BD4680BD80B586B0E7
:101F100000AF0346B9607A60FB7300237B61FFF773
:101F200061FF78617A68B9687869FFF7B1FF0246A6
:101F300097F90F3011461846FFF780FF00BF18379A
:101F4000BD4680BD80B582B000AF0346FB7197F9F6
:101F500007301846FFF754FF00BF0837BD4680BD65
:101F600080B489B000AF7860396000237B610023C2
:101F70003B610023BB610023FB6159E10122FB6946
:101F800002FA03F37B613B681B687A6913403B618B
:101F90003A697B699A4240F048813B685B6803F08C
:101FA0000303012B05D03B685B6803F00303022B9E
:101FB00030D17B689B68BB61FB695B00032202FA3E
:101FC00003F3DB43BA691340BB613B68DA68FB6922
:101FD0005B0002FA03F3BA691343BB617B68BA6919
:101FE0009A607B685B68BB610122FB6902FA03F3BC
:101FF000DB43BA691340BB613B685B681B0903F0B4
:102000000102FB6902FA03F3BA691343BB617B68FF
:10201000BA695A603B685B6803F00303032B17D06F
:102020007B68DB68BB61FB695B00032202FA03F398
:10203000DB43BA691340BB613B689A68FB695B008C
:1020400002FA03F3BA691343BB617B68BA69DA60C9
:102050003B685B6803F00303022B23D1FB69DA08BA
:102060007B68083253F82230BB61FB6903F0070339
:102070009B000F2202FA03F3DB43BA691340BB61F2
:102080003B681A69FB6903F007039B0002FA03F33C
:10209000BA691343BB61FB69DA087B680832B96926
:1020A00043F822107B681B68BB61FB695B0003225D
:1020B00002FA03F3DB43BA691340BB613B685B6818
:1020C00003F00302FB695B0002FA03F3BA691343EE
:1020D000BB617B68BA691A603B685B6803F4403394
:1020E000002B00F0A2800023FB60574B5B6C564A2C
:1020F00043F480435364544B5B6C03F48043FB60B4
:10210000FB68524AFB699B08023352F82330BB61DB
:10211000FB6903F003039B000F2202FA03F3DB4386
:10212000BA691340BB617B68494A934219D07B6806
:10213000484A934213D07B68474A93420DD07B684C
:10214000464A934207D07B68454A934201D1042313
:1021500008E0072306E0032304E0022302E0012352
:1021600000E00023FA6902F0030292009340BA698A
:102170001343BB613549FB699B080233BA6941F8D7
:102180002320384B9B68BB613B69DB43BA69134032
:10219000BB613B685B6803F48013002B03D0BA6912
:1021A0003B691343BB612F4ABB6993602D4BDB68CE
:1021B000BB613B69DB43BA691340BB613B685B6849
:1021C00003F40013002B03D0BA693B691343BB61CE
:1021D000244ABB69D360234B5B68BB613B69DB432B
:1021E000BA691340BB613B685B6803F40033002BA2
:1021F00003D0BA693B691343BB611A4ABB69536098
:10220000184B1B68BB613B69DB43BA691340BB6178
:102210003B685B6803F48033002B03D0BA693B69E9
:102220001343BB610F4ABB691360FB690133FB6158
:10223000FB690F2B7FF6A2AE00BF00BF2437BD465F
:102240005DF8047B704700BF003802400038014051
:10225000000002400004024000080240000C02405E
:1022600000100240003C014080B485B000AF7860AF
:102270000B467B807B681A697B881340002B02D059
:102280000123FB7301E00023FB73FB7B184614372B
:10229000BD465DF8047B704780B483B000AF7860C2
:1022A0000B467B8013467B707B78002B03D07A88AB
:1022B0007B689A6103E07B881A047B689A6100BF9F
:1022C0000C37BD465DF8047B704780B485B000AF25
:1022D00078600B467B807B685B69FB607A88FB6873
:1022E00013401A04FB68D9437B880B401A437B6870
:1022F0009A6100BF1437BD465DF8047B704700004B
:1023000080B582B000AF0346FB80084B5A69FB885A
:102310001340002B06D0054AFB885361FB88184602
:10232000FFF728FC00BF0837BD4680BD003C0140D8
:1023300080B586B000AF78607B68002B01D10123A7
:1023400067E27B681B6803F00103002B75D0884BA4
:102350009B6803F00C03042B0CD0854B9B6803F0A7
:102360000C03082B12D1824B5B6803F48003B3F596
:10237000800F0BD17E4B1B6803F40033002B5BD026
:102380007B685B68002B57D1012342E27B685B6866
:10239000B3F5803F06D1764B1B68754A43F4803312
:1023A00013601DE07B685B68B3F5A02F0CD1704B08
:1023B0001B686F4A43F4802313606D4B1B686C4AA3
:1023C00043F4803313600BE0694B1B68684A23F4C5
:1023D00080331360664B1B68654A23F480231360C7
:1023E0007B685B68002B13D0FFF7CCFC386108E0FA
:1023F000FFF7C8FC02463B69D31A642B01D90323BB
:1024000007E25B4B1B6803F40033002BF0D014E0B1
:10241000FFF7B8FC386108E0FFF7B4FC02463B69FF
:10242000D31A642B01D90323F3E1514B1B6803F446
:102430000033002BF0D100E000BF7B681B6803F085
:102440000203002B63D04A4B9B6803F00C03002B64
:102450000BD0474B9B6803F00C03082B1CD1444B5B
:102460005B6803F48003002B16D1414B1B6803F01B
:102470000203002B05D07B68DB68012B01D0012310
:10248000C7E13B4B1B6823F0F8027B681B69DB004C
:10249000374913430B603AE07B68DB68002B20D0A0
:1024A000344B01221A60FFF76DFC386108E0FFF73A
:1024B00069FC02463B69D31A022B01D90323A8E128
:1024C0002B4B1B6803F00203002BF0D0284B1B683A
:1024D00023F0F8027B681B69DB00254913430B607E
:1024E00015E0244B00221A60FFF74CFC386108E02D
:1024F000FFF748FC02463B69D31A022B01D903239C
:1025000087E11B4B1B6803F00203002BF0D17B68B3
:102510001B6803F00803002B36D07B685B69002B37
:1025200016D0154B01221A60FFF72CFC386108E029
:10253000FFF728FC02463B69D31A022B01D903237B
:1025400067E10B4B5B6F03F00203002BF0D01BE045
:10255000094B00221A60FFF715FC38610EE0FFF707
:1025600011FC02463B69D31A022B07D9032350E121
:102570000038024000004742800E4742884B5B6FA4
:1025800003F00203002BEAD17B681B6803F004030D
:10259000002B00F097800023FB75814B1B6C03F030
:1025A0008053002B0FD10023BB607D4B1B6C7C4AFA
:1025B00043F0805313647A4B1B6C03F08053BB6071
:1025C000BB680123FB75774B1B6803F48073002BFA
:1025D00018D1744B1B68734A43F480731360FFF780
:1025E000D1FB386108E0FFF7CDFB02463B69D31A07
:1025F000022B01D903230CE16A4B1B6803F480739F
:10260000002BF0D07B689B68012B06D1644B1B6FBD
:10261000634A43F0010313671CE07B689B68052B4A
:102620000CD15F4B1B6F5E4A43F0040313675C4B96
:102630001B6F5B4A43F0010313670BE0584B1B6FA2
:10264000574A23F001031367554B1B6F544A23F07D
:10265000040313677B689B68002B15D0FFF792FB80
:1026600038610AE0FFF78EFB02463B69D31A41F25C
:102670008832934201D90323CBE0494B1B6F03F00F
:102680000203002BEED014E0FFF77CFB38610AE078
:10269000FFF778FB02463B69D31A41F28832934236
:1026A00001D90323B5E03E4B1B6F03F00203002B5F
:1026B000EED1FB7D012B05D1394B1B6C384A23F041
:1026C000805313647B689B69002B00F0A180344B1E
:1026D0009B6803F00C03082B5CD07B689B69022B82
:1026E00041D1314B00221A60FFF74CFB386108E002
:1026F000FFF748FB02463B69D31A022B01D903239B
:1027000087E0274B1B6803F00073002BF0D17B6838
:10271000DA697B681B6A1A437B685B6A9B011A4310
:102720007B689B6A5B08013B1B041A437B68DB6A7E
:102730001B061B4913434B601B4B01221A60FFF71A
:1027400021FB386108E0FFF71DFB02463B69D31A05
:10275000022B01D903235CE0114B1B6803F00073CB
:10276000002BF0D054E0104B00221A60FFF70AFB58
:10277000386108E0FFF706FB02463B69D31A022BDB
:1027800001D9032345E0064B1B6803F00073002BBF
:10279000F0D13DE07B689B69012B07D1012338E034
:1027A0000038024000700040600047421B4B5B68ED
:1027B000FB607B689B69012B28D0FB6803F48002D7
:1027C0007B68DB699A4221D1FB6803F03F027B689A
:1027D0001B6A9A421AD1FA6847F6C07313407A68A6
:1027E000526A9201934211D1FB6803F440327B6834
:1027F0009B6A5B08013B1B049A4207D1FB6803F00C
:1028000070627B68DB6A1B069A4201D0012300E0FC
:10281000002318461837BD4680BD00BF003802406F
:1028200080B584B000AF786039607B68002B01D13F
:102830000123CCE0684B1B6803F007033A689A4217
:102840000CD9654B3A68D2B21A70634B1B6803F01F
:1028500007033A689A4201D00123B8E07B681B68FD
:1028600003F00203002B20D07B681B6803F00403F5
:10287000002B05D0594B9B68584A43F4E0539360B2
:102880007B681B6803F00803002B05D0534B9B6843
:10289000524A43F460439360504B9B6823F0F0022C
:1028A0007B689B684D4913438B607B681B6803F012
:1028B0000103002B44D07B685B68012B07D1474B99
:1028C0001B6803F40033002B19D101237FE07B68E0
:1028D0005B68022B03D07B685B68032B07D13F4BFF
:1028E0001B6803F00073002B09D101236FE03B4B01
:1028F0001B6803F00203002B01D1012367E0374B73
:102900009B6823F003027B685B68344913438B6048
:10291000FFF738FAF8600AE0FFF734FA0246FB687E
:10292000D31A41F28832934201D903234FE02B4B53
:102930009B6803F00C027B685B689B009A42EBD1BA
:10294000254B1B6803F007033A689A420CD2224BCE
:102950003A68D2B21A70204B1B6803F007033A683A
:102960009A4201D0012332E07B681B6803F0040324
:10297000002B08D0194B9B6823F4E0527B68DB687E
:10298000164913438B607B681B6803F00803002B18
:1029900009D0124B9B6823F460427B681B69DB0003
:1029A0000E4913438B6000F021F802460B4B9B68E5
:1029B0001B0903F00F030A49CB5C22FA03F3094A0F
:1029C0001360094B1B681846FEF706FD00231846E6
:1029D0001037BD4680BD00BF003C024000380240B9
:1029E000E4B0000800000020080000202DE9B04FEE
:1029F00090B000AF00237B630023FB6300233B63A5
:102A00000023BB63594B9B6803F00C03082B0DD0CC
:102A1000082B00F2A180002B02D0042B03D09BE0F6
:102A2000534BBB639BE0534BBB6398E04F4B5B68DE
:102A300003F03F037B634D4B5B6803F48003002B83
:102A400028D04A4B5B689B0900223B627A623B6A52
:102A5000C3F308000021474B03FB01F2002300FBF6
:102A600003F31344434AA0FB0212FA620A46BA6215
:102A7000FA6A1344FB627B6B0022BB61FA61D7E9FF
:102A80000623D7E90A01FEF707F902460B4613466B
:102A9000FB6353E0354B5B689B0900223B617A6125
:102AA0003B69C3F3080A4FF0000B52465B464FF0F8
:102AB00000004FF00001590141EAD2615001024685
:102AC0000B46B2EB0A0863EB0B094FF000024FF024
:102AD00000034FEA891343EA98634FEA8812B2EB86
:102AE000080463EB09054FF000024FF00003EB0010
:102AF00043EA5473E20014461D4614EB0A033B609C
:102B000045EB0B037B604FF000024FF00003D7E969
:102B1000004529468B02214643EA915321468A0209
:102B2000104619467B6B0022BB60FA60D7E902238E
:102B3000FEF7B2F802460B461346FB630B4B5B688D
:102B40001B0C03F0030301335B003B63FA6B3B6B2D
:102B5000B2FBF3F3BB6302E0054BBB6300BFBB6B8F
:102B600018464037BD46BDE8B08F00BF0038024070
:102B70000024F40040787D0180B400AF034B1B6853
:102B80001846BD465DF8047B704700BF000000207A
:102B900080B500AFFFF7F0FF0246054B9B689B0A2C
:102BA00003F007030349CB5C22FA03F3184680BD08
:102BB00000380240F4B0000880B500AFFFF7DCFF3A
:102BC0000246054B9B685B0B03F007030349CB5C94
:102BD00022FA03F3184680BD00380240F4B0000822
:102BE00080B483B000AF786039607B680F221A60D0
:102BF000124B9B6803F003027B685A600F4B9B6883
:102C000003F0F0027B689A600C4B9B6803F4E0527F
:102C10007B68DA60094B9B68DB0803F4E0527B6851
:102C20001A61074B1B6803F007023B681A6000BF7C
:102C30000C37BD465DF8047B704700BF003802408A
:102C4000003C024080B582B000AF78607B68002B0A
:102C500001D1012341E07B6893F83D30DBB2002BCA
:102C600006D17B68002283F83C207868FEF78CFD53
:102C70007B68022283F83D207B681A687B680433F6
:102C80001946104600F070FA7B68012283F846204E
:102C90007B68012283F83E207B68012283F83F2075
:102CA0007B68012283F840207B68012283F8412061
:102CB0007B68012283F842207B68012283F843204D
:102CC0007B68012283F844207B68012283F8452039
:102CD0007B68012283F83D20002318460837BD4653
:102CE00080BD000080B485B000AF78607B6893F849
:102CF0003D30DBB2012B01D0012344E07B6802228E
:102D000083F83D207B681B68DA687B681B6842F0AB
:102D10000102DA607B681B681E4A934218D07B6808
:102D20001B68B3F1804F13D07B681B681A4A93422B
:102D30000ED07B681B68194A934209D07B681B68D8
:102D4000174A934204D07B681B68164A934211D1FC
:102D50007B681B689B6803F00703FB60FB68062B1E
:102D600010D07B681B681A687B681B6842F0010200
:102D70001A6007E07B681B681A687B681B6842F072
:102D800001021A60002318461437BD465DF8047B23
:102D9000704700BF000001400004004000080040F0
:102DA000000C00400040014080B584B000AF786066
:102DB0007B681B68DB68FB607B681B681B69BB600A
:102DC000BB6803F00203002B20D0FB6803F0020372
:102DD000002B1BD07B681B686FF002021A617B68B6
:102DE00001221A777B681B689B6903F00303002BA1
:102DF00003D0786800F099F905E0786800F08BF965
:102E0000786800F09CF97B6800221A77BB6803F0B1
:102E10000403002B20D0FB6803F00403002B1BD01D
:102E20007B681B686FF004021A617B6802221A77C4
:102E30007B681B689B6903F44073002B03D07868A0
:102E400000F073F905E0786800F065F9786800F043
:102E500076F97B6800221A77BB6803F00803002B21
:102E600020D0FB6803F00803002B1BD07B681B6895
:102E70006FF008021A617B6804221A777B681B686E
:102E8000DB6903F00303002B03D0786800F04DF9F1
:102E900005E0786800F03FF9786800F050F97B6849
:102EA00000221A77BB6803F01003002B20D0FB68C8
:102EB00003F01003002B1BD07B681B686FF010021F
:102EC0001A617B6808221A777B681B68DB6903F448
:102ED0004073002B03D0786800F027F905E078688C
:102EE00000F019F9786800F02AF97B6800221A7757
:102EF000BB6803F00103002B0CD0FB6803F0010357
:102F0000002B07D07B681B686FF001021A6178689C
:102F1000FEF716FABB6803F08003002B0CD0FB68A9
:102F200003F08003002B07D07B681B686FF08002E2
:102F30001A61786800F0B6FABB6803F04003002B12
:102F40000CD0FB6803F04003002B07D07B681B68A4
:102F50006FF040021A61786800F0FBF8BB6803F07C
:102F60002003002B0CD0FB6803F02003002B07D0BC
:102F70007B681B686FF020021A61786800F088FA9D
:102F800000BF1037BD4680BD80B584B000AF78600B
:102F900039600023FB737B6893F83C30012B01D12F
:102FA0000223B4E07B68012283F83C207B68022284
:102FB00083F83D207B681B689B68BB60BB6823F07F
:102FC0007703BB60BB6823F47F43BB607B681B68EF
:102FD000BA689A603B681B68B3F5005F3ED0B3F5F2
:102FE000005F00F28780B3F5805F00F08680B3F564
:102FF000805F7FD8702B1AD0702B7BD8602B50D07D
:10300000602B77D8502B3CD0502B73D8402B58D006
:10301000402B6FD8302B64D0302B6BD8202B60D056
:10302000202B67D8002B5CD0102B5AD062E07B6835
:1030300018683B6899683B685A683B68DB6800F031
:1030400099F97B681B689B68BB60BB6843F077039A
:10305000BB607B681B68BA689A604FE07B68186841
:103060003B6899683B685A683B68DB6800F082F906
:103070007B681B689A687B681B6842F480429A6090
:103080003CE07B6818683B6859683B68DB681A4617
:1030900000F0F6F87B681B685021184600F04FF9E5
:1030A0002CE07B6818683B6859683B68DB681A4607
:1030B00000F015F97B681B686021184600F03FF9A5
:1030C0001CE07B6818683B6859683B68DB681A46F7
:1030D00000F0D6F87B681B684021184600F02FF9F5
:1030E0000CE07B681A683B681B681946104600F0C4
:1030F00026F903E00123FB7300E000BF7B68012297
:1031000083F83D207B68002283F83C20FB7B184637
:103110001037BD4680BD80B483B000AF786000BF7B
:103120000C37BD465DF8047B704780B483B000AFB8
:10313000786000BF0C37BD465DF8047B704780B4F3
:1031400083B000AF786000BF0C37BD465DF8047BEC
:10315000704780B483B000AF786000BF0C37BD46C5
:103160005DF8047B7047000080B485B000AF7860E4
:1031700039607B681B68FB607B683A4A93420FD0DA
:103180007B68B3F1804F0BD07B68374A934207D0FE
:103190007B68364A934203D07B68354A934208D114
:1031A000FB6823F07003FB603B685B68FA681343BD
:1031B000FB607B682B4A93421BD07B68B3F1804F46
:1031C00017D07B68284A934213D07B68274A9342E2
:1031D0000FD07B68264A93420BD07B68254A9342E6
:1031E00007D07B68244A934203D07B68234A9342EA
:1031F00008D1FB6823F44073FB603B68DB68FA6826
:103200001343FB60FB6823F080023B685B69134358
:10321000FB607B68FA681A603B689A687B68DA62D0
:103220003B681A687B689A627B680E4A934203D1B6
:103230003B681A697B681A637B6801225A617B6864
:103240001B6903F00103012B05D17B681B6923F087
:1032500001027B681A6100BF1437BD465DF8047B2C
:10326000704700BF0000014000040040000800401B
:10327000000C004000400140004401400048014073
:1032800080B487B000AFF860B9607A60FB681B6AF1
:103290007B61FB681B6A23F00102FB681A62FB6812
:1032A0009B693B613B6923F0F0033B617B681B0139
:1032B0003A6913433B617B6923F00A037B617A69B6
:1032C000BB6813437B61FB683A699A61FB687A6962
:1032D0001A6200BF1C37BD465DF8047B704780B49E
:1032E00087B000AFF860B9607A60FB681B6A7B61E9
:1032F000FB681B6A23F01002FB681A62FB689B697B
:103300003B613B6923F470433B617B681B033A6973
:1033100013433B617B6923F0A0037B61BB681B0106
:103320007A6913437B61FB683A699A61FB687A6941
:103330001A6200BF1C37BD465DF8047B704780B43D
:1033400085B000AF786039607B689B68FB60FB6884
:1033500023F07003FB603A68FB68134343F00703F4
:10336000FB607B68FA689A6000BF1437BD465DF861
:10337000047B704780B487B000AFF860B9607A60B2
:103380003B60FB689B687B617B6923F47F437B61C7
:103390003B681A027B681A43BB6813437A6913437C
:1033A0007B61FB687A699A6000BF1C37BD465DF897
:1033B000047B704780B485B000AF786039607B686B
:1033C00093F83C30012B01D1022350E07B680122AD
:1033D00083F83C207B68022283F83D207B681B68D1
:1033E0005B68FB607B681B689B68BB60FB6823F0C5
:1033F0007003FB603B681B68FA681343FB607B68E3
:103400001B68FA685A607B681B681C4A934218D094
:103410007B681B68B3F1804F13D07B681B68184A28
:1034200093420ED07B681B68164A934209D07B6892
:103430001B68154A934204D07B681B68134A934269
:103440000CD1BB6823F08003BB603B685B68BA6843
:103450001343BB607B681B68BA689A607B68012273
:1034600083F83D207B68002283F83C200023184627
:103470001437BD465DF8047B704700BF0000014073
:103480000004004000080040000C004000400140E3
:1034900080B483B000AF786000BF0C37BD465DF8E4
:1034A000047B704780B483B000AF786000BF0C37F6
:1034B000BD465DF8047B704780B582B000AF786090
:1034C0007B68002B01D1012342E07B6893F84130F7
:1034D000DBB2002B06D17B68002283F8402078689D
:1034E000FEF7A2F97B68242283F841207B681B68E1
:1034F000DA687B681B6822F40052DA60786800F0B2
:103500002BF87B681B681A697B681B6822F4904261
:103510001A617B681B685A697B681B6822F02A0263
:103520005A617B681B68DA687B681B6842F400524A
:10353000DA607B6800225A647B68202283F841208D
:103540007B68202283F842207B6800225A63002394
:1035500018460837BD4680BD2DE9B04FC0B000AF5A
:10356000C7F8F400D7F8F4301B681B6923F4405007
:10357000D7F8F430D968D7F8F4301A6840EA010374
:103580001361D7F8F4309A68D7F8F4301B691A43FE
:10359000D7F8F4305B691A43D7F8F430DB6913438A
:1035A000C7F8F830D7F8F4301B68DB6823F416410D
:1035B00021F00C01D7F8F4301A68D7F8F8300B4333
:1035C000D360D7F8F4301B685B6923F44070D7F8F8
:1035D000F4309969D7F8F4301A6840EA010353616E
:1035E000D7F8F4301A688F4B9A4205D0D7F8F430E8
:1035F0001A688D4B9A4204D1FFF7DEFAC7F8FC0037
:1036000003E0FFF7C5FAC7F8FC00D7F8F430DB6930
:10361000B3F5004F40F00C81D7F8FC300022C7F81A
:10362000E830C7F8EC20D7E93A4522462B469118F6
:10363000B9655B41FB65D7E91623214612EB01080A
:10364000294643EB01094FF000024FF000034FEA17
:10365000C90343EA58734FEAC80290469946234685
:1036600018EB0303C7F8E0302B4649EB0303C7F818
:10367000E430D7F8F4305B680022C7F8D830C7F8D8
:10368000DC20D7E936120B46DB183B65134642EBCC
:1036900003037B65D7E91423D7E93801FDF7FCFA6A
:1036A00002460B46614BA3FB02235B091C01D7F8C2
:1036B000FC300022C7F8D030C7F8D420D7E93489CD
:1036C00042464B469118B9645B41FB64D7E912232B
:1036D000414612EB010A494643EB010B4FF0000251
:1036E0004FF000034FEACB0343EA5A734FEACA0292
:1036F00092469B4643461AEB0303C7F8C8304B4635
:103700004BEB0303C7F8CC30D7F8F4305B680022EA
:10371000C7F8C030C7F8C420D7E930120B46DB1811
:103720003B64134642EB03037B64D7E91023D7E9DC
:103730003201FDF7B1FA02460B4611463B4BA3FBA3
:1037400001235B09642202FB03F3CB1ADB0003F1C4
:103750003202364BA3FB02235B095B0003F4F873D0
:103760001C44D7F8FC300022C7F8B830C7F8BC209A
:10377000D7E92E8942464B469118B9635B41FB63FA
:10378000D7E90E2341465118396349464B417B63C3
:103790004FF000024FF00003D7E90CAB5946CB00C5
:1037A000514643EA51735146CA0010461946034632
:1037B00042469B18C7F8B0304B460A4642EB03031B
:1037C000C7F8B430D7F8F4305B680022C7F8A830E7
:1037D000C7F8AC20D7E92A120B46DB18BB621346A8
:1037E00042EB0303FB62D7E90A23D7E92C01FDF77B
:1037F00053FA02460B460D4BA3FB02135B096421EF
:1038000001FB03F3D31ADB003233084AA2FB032384
:103810005B0903F00702D7F8F4301B6822449A6072
:1038200006E100BF00100140001401401F85EB516C
:10383000D7F8FC300022C7F8A030C7F8A420D7E999
:10384000288942464B46911839625B417B62D7E931
:10385000082341465418494643EB01054FF0000246
:103860004FF00003EB0043EA5473E20014461D4698
:103870004346E318C7F898304B4645EB0303C7F8B7
:103880009C30D7F8F4305B680022C7F89030C7F856
:1038900094204FF000024FF00003D7E92445294659
:1038A0008B00214643EA917321468A00D7E926011D
:1038B000FDF7F2F902460B46604BA3FB02235B09BE
:1038C0001C01D7F8FC300022C7F88830C7F88C20DC
:1038D000D7E9228942464B469118B9615B41FB61A9
:1038E000D7E9062341465118396149464B417B616E
:1038F0004FF000024FF00003D7E904AB5946CB006C
:10390000514643EA51735146CA00104619460346D0
:1039100042469B18C7F880304B460A4642EB0303E9
:10392000C7F88430D7F8F4305B680022BB67FA67C9
:103930004FF000024FF00003D7E91E8949468B0083
:10394000414643EA917341468A00D7E92001FDF7D9
:10395000A3F902460B461146384BA3FB01235B0932
:10396000642202FB03F3CB1A1B013233334AA2FB5E
:1039700003235B0903F0F0031C44D7F8FC3000225A
:103980003B677A67D7E91C8942464B469118B96074
:103990005B41FB60D7E90223414651183960494633
:1039A0004B417B604FF000024FF00003D7E900ABC2
:1039B0005946CB00514643EA51735146CA0010465E
:1039C0001946034642469B18BB664B460A4642EBE5
:1039D0000303FB66D7F8F4305B6800223B667A6627
:1039E0004FF000024FF00003D7E9188949468B00D9
:1039F000414643EA917341468A00D7E91A01FDF72F
:103A00004BF902460B460D4BA3FB02135B096421E5
:103A100001FB03F3D31A1B013233084AA2FB032331
:103A20005B0903F00F02D7F8F4301B6822449A6058
:103A300000BF07F58077BD46BDE8B08F1F85EB510D
:103A400080B483B000AF03463960FB7197F907304B
:103A5000002B0ADB3B68DAB20C4997F907301201F8
:103A6000D2B20B4483F800230AE03B68DAB208497B
:103A7000FB7903F00F03043B1201D2B20B441A7618
:103A800000BF0C37BD465DF8047B704700E100E0E5
:103A900000ED00E080B500AF054B1B6801F014FDA0
:103AA0000346012B01D002F00FFB00BF80BD00BF19
:103AB00010E000E080B500AF00216FF00400FFF7D8
:103AC000BFFF00BF80BD000080B483B000AFEFF344
:103AD00005833B603B68002B03D06FF005037B60E0
:103AE0000CE00A4B1B68002B05D1084B01221A6021
:103AF00000237B6002E04FF0FF337B607B68184659
:103B00000C37BD465DF8047B704700BF08030020FA
:103B100080B582B000AFEFF305833B603B68002BBC
:103B200003D06FF005037B6010E00B4B1B68012B8B
:103B300009D1FFF7BFFF084B02221A6001F064F8B9
:103B400000237B6002E04FF0FF337B607B68184608
:103B50000837BD4680BD00BF0803002080B58EB089
:103B600004AFF860B9607A6000233B61EFF305832E
:103B70007B617B69002B7ED1FB68002B7BD080238F
:103B80003B621823FB6100237B624FF0FF33BB6174
:103B90007B68002B45D07B681B68002B02D07B68BC
:103BA0001B687B627B689B69002B02D07B689B69EA
:103BB000FB61FB69002B08D0FB69382B05D87B68BB
:103BC0005B6803F00103002B01D0002354E07B6805
:103BD0005B69002B03D07B685B699B083B627B6859
:103BE0009B68002B0ED07B68DB685B2B0AD97B6857
:103BF0001B69002B06D07B685B69002B02D0012378
:103C0000BB6110E07B689B68002B0CD17B68DB6894
:103C1000002B08D17B681B69002B04D10023BB61FA
:103C200001E00023BB61BB69012B10D17B681B69DC
:103C30007A68926802920193FB690093BB683A6AC2
:103C4000796AF86800F03AFE03463B6113E0BB690D
:103C5000002B10D13B6A9AB207F110030193FB6964
:103C60000093BB68796AF86800F088FE0346012B70
:103C700001D000233B613B6918462837BD4680BD13
:103C800080B485B000AFF860B9607A60FB68074A1D
:103C90001A60BB68064A1A607B6880221A6000BFFF
:103CA0001437BD465DF8047B704700BF0C0300204D
:103CB0006803002080B485B000AFF860B9607A6016
:103CC000FB68074A1A60BB68064A1A607B684FF4B3
:103CD00080721A6000BF1437BD465DF8047B7047E0
:103CE00068050020C405002080B483B000AF786070
:103CF0007B6803F108027B685A607B684FF0FF32F3
:103D00009A607B6803F108027B68DA607B6803F1E4
:103D100008027B681A617B6800221A6000BF0C37BA
:103D2000BD465DF8047B704780B483B000AF786017
:103D30007B6800221A6100BF0C37BD465DF8047B2A
:103D4000704780B485B000AF786039607B685B688D
:103D5000FB603B68FA685A60FB689A683B689A6047
:103D6000FB689B683A685A60FB683A689A603B68EF
:103D70007A681A617B681B685A1C7B681A6000BFEE
:103D80001437BD465DF8047B704780B485B000AF42
:103D9000786039603B681B68BB60BB68B3F1FF3F6C
:103DA00003D17B681B69FB600CE07B680833FB6018
:103DB00002E0FB685B68FB60FB685B681B68BA68D5
:103DC0009A42F6D2FB685A683B685A603B685B6867
:103DD0003A689A603B68FA689A60FB683A685A6089
:103DE0003B687A681A617B681B685A1C7B681A609A
:103DF00000BF1437BD465DF8047B704780B485B0C2
:103E000000AF78607B681B69FB607B685B687A68E1
:103E100092689A607B689B687A6852685A60FB680F
:103E20005B687A689A4203D17B689A68FB685A603B
:103E30007B6800221A61FB681B685A1EFB681A60C7
:103E4000FB681B6818461437BD465DF8047B704755
:103E500080B584B000AF786039607B68FB60FB6838
:103E6000002B0BD14FF0500383F31188BFF36F8FFA
:103E7000BFF34F8FBB6000BF00BFFDE702F094F8B7
:103E8000FB681A68FB68DB6BF968096C01FB03F3DC
:103E90001A44FB689A60FB6800229A63FB681A6800
:103EA000FB685A60FB681A68FB68DB6B013BF968CA
:103EB000096C01FB03F31A44FB68DA60FB68FF221C
:103EC00083F84420FB68FF2283F845203B68002BE1
:103ED00014D1FB681B69002B1AD0FB6810331846FD
:103EE00001F032F90346002B12D00D4B4FF08052F7
:103EF0001A60BFF34F8FBFF36F8F09E0FB68103379
:103F00001846FFF7F1FEFB6824331846FFF7ECFE76
:103F100002F07CF8012318461037BD4680BD00BF73
:103F200004ED00E080B58EB002AFF860B9607A6051
:103F30003B60FB68002B0BD14FF0500383F31188DB
:103F4000BFF36F8FBFF34F8FBB6200BF00BFFDE7B2
:103F50003B68002B0BD14FF0500383F31188BFF364
:103F60006F8FBFF34F8F7B6200BF00BFFDE77B68A1
:103F7000002B02D0BB68002B01D0012300E00023FE
:103F8000002B0BD14FF0500383F31188BFF36F8FD9
:103F9000BFF34F8F3B6200BF00BFFDE77B68002B84
:103FA00002D1BB68002B01D1012300E00023002BCC
:103FB0000BD14FF0500383F31188BFF36F8FBFF322
:103FC0004F8FFB6100BF00BFFDE750237B617B6922
:103FD000502B0BD04FF0500383F31188BFF36F8F3A
:103FE000BFF34F8FBB6100BF00BFFDE77B693B683C
:103FF000FB62FB6A002B0DD0FB6A012283F846208E
:1040000097F83820FB6A009313467A68B968F86815
:1040100000F040F8FB6A18463037BD4680BD80B5D9
:104020008AB002AFF860B9601346FB71FB68002BE1
:104030000BD14FF0500383F31188BFF36F8FBFF3A1
:104040004F8F3B6100BF00BFFDE7FB68BA6802FB12
:1040500003F3FB61FB695033184602F0C7F8B861FF
:10406000BB69002B11D0BB697B617B6950337B61DD
:10407000BB69002283F84620FA79BB690093134696
:104080007A69B968F86800F005F8BB691846203706
:10409000BD4680BD80B584B000AFF860B9607A607D
:1040A000FB70BB68002B03D1BB69BA691A6002E0E0
:1040B000BB697A681A60BB69FA68DA63BB69BA6877
:1040C0001A640121B869FFF7C3FEBB69FA7883F867
:1040D0004C2000BF1037BD4680BD000080B58EB0BB
:1040E00000AFF860B9607A603B6000237B63FB68D7
:1040F0003B633B6B002B0BD14FF0500383F31188D4
:10410000BFF36F8FBFF34F8FBB6200BF00BFFDE7F0
:10411000BB68002B03D13B6B1B6C002B01D101232F
:1041200000E00023002B0BD14FF0500383F31188E4
:10413000BFF36F8FBFF34F8F7B6200BF00BFFDE700
:104140003B68022B03D13B6BDB6B012B01D10123BD
:1041500000E00023002B0BD14FF0500383F31188B4
:10416000BFF36F8FBFF34F8F3B6200BF00BFFDE710
:1041700001F0AAF90346002B02D17B68002B01D184
:10418000012300E00023002B0BD14FF0500383F3F9
:104190001188BFF36F8FBFF34F8FFB6100BF00BF6C
:1041A000FDE701F001FF3B6B9A6B3B6BDB6B9A42C7
:1041B00002D33B68022B29D13A68B968386B00F00A
:1041C0000FFAF8623B6B5B6A002B10D03B6B243319
:1041D000184600F0B9FF0346002B13D03F4B4FF0B9
:1041E00080521A60BFF34F8FBFF36F8F0AE0FB6AF4
:1041F000002B07D0394B4FF080521A60BFF34F8F1E
:10420000BFF36F8F01F002FF012363E07B68002B97
:1042100003D101F0FBFE00235CE07B6B002B06D199
:1042200007F11403184600F0F3FF01237B6301F04C
:10423000EDFE00F051FD01F0B7FE3B6B93F844300A
:104240005BB2B3F1FF3F03D13B6B002283F8442004
:104250003B6B93F845305BB2B3F1FF3F03D13B6B4F
:10426000002283F8452001F0D1FE3A1D07F1140326
:104270001146184600F0E2FF0346002B24D1386BAC
:1042800000F0A6FA0346002B18D03B6B10337A6877
:104290001146184600F006FF386B00F031FA00F0C6
:1042A00029FD0346002B7FF47CAF0C4B4FF080526E
:1042B0001A60BFF34F8FBFF36F8F72E7386B00F058
:1042C0001FFA00F017FD6CE7386B00F019FA00F0E8
:1042D00011FD002318463837BD4680BD04ED00E0CF
:1042E00080B590B000AFF860B9607A603B60FB6861
:1042F000BB63BB6B002B0BD14FF0500383F31188D2
:10430000BFF36F8FBFF34F8FBB6200BF00BFFDE7EE
:10431000BB68002B03D1BB6B1B6C002B01D10123AD
:1043200000E00023002B0BD14FF0500383F31188E2
:10433000BFF36F8FBFF34F8F7B6200BF00BFFDE7FE
:104340003B68022B03D1BB6BDB6B012B01D101233B
:1043500000E00023002B0BD14FF0500383F31188B2
:10436000BFF36F8FBFF34F8F3B6200BF00BFFDE70E
:1043700001F0FAFEEFF311824FF0500383F311883E
:10438000BFF36F8FBFF34F8FFA61BB61FB697B6334
:10439000BB6B9A6BBB6BDB6B9A4202D33B68022B05
:1043A0002FD1BB6B93F8453087F83330BB6B9B6BD9
:1043B000FB623A68B968B86B00F012F997F93330CC
:1043C000B3F1FF3F12D1BB6B5B6A002B16D0BB6B06
:1043D0002433184600F0B8FE0346002B0ED07B684D
:1043E000002B0BD07B6801221A6007E097F833306E
:1043F0000133DBB25AB2BB6B83F845200123FB6368
:1044000001E00023FB637B6B7B617B6983F3118895
:1044100000BFFB6B18464037BD4680BD80B58CB0F1
:1044200000AFF860B9607A600023FB62FB68BB6292
:10443000BB6A002B0BD14FF0500383F31188BFF3FD
:104440006F8FBFF34F8F3B6200BF00BFFDE7BB68BC
:10445000002B03D1BB6A1B6C002B01D1012300E0B0
:104460000023002B0BD14FF0500383F31188BFF3CF
:104470006F8FBFF34F8FFB6100BF00BFFDE701F0FF
:1044800023F80346002B02D17B68002B01D10123C6
:1044900000E00023002B0BD14FF0500383F3118871
:1044A000BFF36F8FBFF34F8FBB6100BF00BFFDE74E
:1044B00001F07AFDBB6A9B6B7B627B6A002B1FD08D
:1044C000B968B86A00F0F6F87B6A5A1EBB6A9A634C
:1044D000BB6A1B69002B0FD0BB6A1033184600F073
:1044E00033FE0346002B07D03C4B4FF080521A603E
:1044F000BFF34F8FBFF36F8F01F088FD012369E099
:104500007B68002B03D101F081FD002362E0FB6A90
:10451000002B06D107F11003184600F079FE0123A5
:10452000FB6201F073FD00F0D7FB01F03DFDBB6ABB
:1045300093F844305BB2B3F1FF3F03D1BB6A002272
:1045400083F84420BB6A93F845305BB2B3F1FF3F78
:1045500003D1BB6A002283F8452001F057FD3A1DC4
:1045600007F110031146184600F068FE0346002BC1
:1045700023D1B86A00F016F90346002B17D0BB6AA6
:1045800024337A681146184600F08CFDB86A00F0B2
:10459000B7F800F0AFFB0346002B89D10F4B4FF06B
:1045A00080521A60BFF34F8FBFF36F8F80E7B86AF6
:1045B00000F0A6F800F09EFB7AE7B86A00F0A0F8D9
:1045C00000F098FBB86A00F0EDF80346002B3FF4CA
:1045D0006FAF002318463037BD4680BD04ED00E0C4
:1045E00080B586B000AFF860B9607A6000237B6167
:1045F000FB689B6B3B61FB681B6C002B0DD1FB6860
:104600001B68002B4DD1FB689B68184600F07AFFB1
:104610007861FB6800229A6043E07B68002B19D127
:10462000FB685868FB681B6C1A46B96803F0E1F830
:10463000FB685A68FB681B6C1A44FB685A60FB688D
:104640005A68FB689B689A422BD3FB681A68FB6820
:104650005A6026E0FB68D868FB681B6C1A46B9688C
:1046600003F0C7F8FB68DA68FB681B6C5B421A440E
:10467000FB68DA60FB68DA68FB681B689A4207D25D
:10468000FB689A68FB681B6C5B421A44FB68DA6043
:104690007B68022B05D13B69002B02D03B69013BB3
:1046A0003B613B695A1CFB689A637B691846183763
:1046B000BD4680BD80B582B000AF786039607B6850
:1046C0001B6C002B18D07B68DA687B681B6C1A4463
:1046D0007B68DA607B68DA687B689B689A4203D300
:1046E0007B681A687B68DA607B68D9687B681B6CBA
:1046F0001A46386803F07DF800BF0837BD4680BD14
:1047000080B584B000AF786001F04EFC7B6893F810
:104710004530FB7311E07B685B6A002B12D07B682D
:104720002433184600F010FD0346002B01D000F0A2
:10473000E9FDFB7B013BDBB2FB7397F90F30002BEC
:10474000E9DC00E000BF7B68FF2283F8452001F030
:104750005DFC01F029FC7B6893F84430BB7311E0E9
:104760007B681B69002B12D07B681033184600F061
:10477000EBFC0346002B01D000F0C4FDBB7B013BEA
:10478000DBB2BB7397F90E30002BE9DC00E000BF11
:104790007B68FF2283F8442001F038FC00BF10370B
:1047A000BD4680BD80B584B000AF786001F0FCFBF1
:1047B0007B689B6B002B02D10123FB6001E000238F
:1047C000FB6001F023FCFB6818461037BD4680BD36
:1047D00080B584B000AF786001F0E6FB7B689A6B2F
:1047E0007B68DB6B9A4202D10123FB6001E000236E
:1047F000FB6001F00BFCFB6818461037BD4680BD1E
:1048000080B485B000AF786039600023FB6014E0AD
:104810000F4AFB6852F83330002B0BD10C49FB6870
:104820003A6841F833200A4AFB68DB0013447A688F
:104830005A6006E0FB680133FB60FB68072BE7D991
:1048400000BF00BF1437BD465DF8047B704700BF52
:10485000C409002080B586B000AFF860B9607A6006
:10486000FB687B6101F0A0FB7B6993F844305BB28D
:10487000B3F1FF3F03D17B69002283F844207B69B9
:1048800093F845305BB2B3F1FF3F03D17B6900225F
:1048900083F8452001F0BAFB7B699B6B002B06D1A6
:1048A0007B6924337A68B968184600F021FC78697E
:1048B000FFF726FF00BF1837BD4680BD80B58EB01C
:1048C00004AFF860B9607A603B607B6B002B0BD162
:1048D0004FF0500383F31188BFF36F8FBFF34F8FF7
:1048E0003B6200BF00BFFDE7BB6B002B0BD14FF05D
:1048F000500383F31188BFF36F8FBFF34F8FFB61BA
:1049000000BF00BFFDE75C233B613B695C2B0BD024
:104910004FF0500383F31188BFF36F8FBFF34F8FB6
:10492000BB6100BF00BFFDE73B69BB6B002B1ED026
:104930007B6B002B1BD0BB6B7B627B6A7A6B1A6331
:104940007B6A022283F85920002303937B6A029337
:1049500007F1140301933B6B00933B687A68B968D5
:10496000F86800F050F8786A00F0DEF801E0002303
:104970007B617B6918462837BD4680BD80B58CB009
:1049800004AFF860B9603B601346FB80FB889B0076
:10499000184601F02BFC78617B69002B0ED05C205F
:1049A00001F024FCF861FB69002B03D0FB697A69F4
:1049B0001A6305E0786901F0E7FC01E00023FB6180
:1049C000FB69002B17D0FB69002283F85920FA8875
:1049D00000230393FB690293FB6A0193BB6A009374
:1049E0003B68B968F86800F00EF8F86900F09CF8C8
:1049F0000123BB6102E04FF0FF33BB61BB69184686
:104A00002037BD4680BD80B588B000AFF860B96082
:104A10007A603B603B6B186B7B689B001A46A52154
:104A200002F068FE3B6B1A6B7B6803F18043013B2D
:104A30009B001344BB61BB6923F00703BB61BB69E7
:104A400003F00703002B0BD04FF0500383F31188C2
:104A5000BFF36F8FBFF34F8F7B6100BF00BFFDE7D8
:104A6000BB68002B1FD00023FB6112E0BA68FB6912
:104A7000134419783A6BFB69134434330A461A70AD
:104A8000BA68FB6913441B78002B06D0FB6901331D
:104A9000FB61FB690F2BE9D900E000BF3B6B0022F3
:104AA00083F8432003E03B6B002283F83420BB6A89
:104AB000372B01D93723BB623B6BBA6ADA623B6B97
:104AC000BA6ADA643B6B00221A653B6B0433184602
:104AD000FFF72AF93B6B18331846FFF725F93B6BB4
:104AE0003A6B1A61BB6AC3F138023B6B9A613B6B4C
:104AF0003A6B5A623B6B00225A653B6B002283F88B
:104B000058203A68F968B86901F01AF902463B6B17
:104B10001A60FB6A002B02D0FB6A3A6B1A6000BF76
:104B20002037BD4680BD000080B582B000AF786000
:104B300001F03AFA2D4B1B6801332C4A13602C4BC1
:104B40001B68002B09D12A4A7B681360274B1B681E
:104B5000012B10D100F0FAFB0DE0264B1B68002B57
:104B600009D1234B1B68DA6A7B68DB6A9A4202D858
:104B70001F4A7B681360204B1B6801331E4A136079
:104B80001D4B1A687B685A647B68DA6A1B4B1B688A
:104B90009A4203D97B68DB6A184A13607B68DA6A39
:104BA00013469B0013449B00154A1A447B68043348
:104BB00019461046FFF7C5F801F028FA0D4B1B689F
:104BC000002B0ED00A4B1B68DA6A7B68DB6A9A42BC
:104BD00007D20C4B4FF080521A60BFF34F8FBFF3D8
:104BE0006F8F00BF0837BD4680BD00BFD80E0020C4
:104BF000040A0020E40E0020F40E0020E00E002045
:104C0000080A002004ED00E080B58AB004AF00235C
:104C1000BB6000237B603A46391D07F10803184644
:104C2000FFF72EF839687B68BA6802920193002377
:104C3000009300230A4622492248FFF73FFE03461D
:104C4000214A1360204B1B68002B02D001237B619B
:104C500001E000237B617B69012B02D100F016FD8E
:104C600078617B69012B16D14FF0500383F31188D3
:104C7000BFF36F8FBFF34F8F3B6100BF134B4FF0FC
:104C8000FF321A60124B01221A60124B00221A6086
:104C900001F0E6F80FE07B69B3F1FF3F0BD14FF075
:104CA000500383F31188BFF36F8FBFF34F8FFB6007
:104CB00000BF00BFFDE700BF1837BD4680BD00BF85
:104CC000A8B000081D530008FC0E0020F80E0020BC
:104CD000E40E0020DC0E002080B400AF044B1B6803
:104CE0000133034A136000BFBD465DF8047B704783
:104CF000000F002080B584B000AF0023FB600023CC
:104D0000BB60424B1B68002B0BD14FF0500383F369
:104D10001188BFF36F8FBFF34F8F3B6000BF00BFA1
:104D2000FDE701F041F9394B1B68013B374A13603D
:104D3000364B1B68002B62D1354B1B68002B5ED0B5
:104D40002FE0344BDB68DB68FB60FB6818331846E8
:104D5000FFF754F8FB6804331846FFF74FF8FB6879
:104D6000DA6A2D4B1B689A4203D9FB68DB6A2A4A30
:104D70001360FB68DA6A13469B0013449B00274AC2
:104D80001A44FB68043319461046FEF7DAFFFB6845
:104D9000DA6A234B1B68DB6A9A4202D3214B012259
:104DA0001A601C4B1B68002BCBD1FB68002B01D079
:104DB00000F06AFB1C4B1B687B607B68002B10D0EB
:104DC00000F058F80346002B02D0164B01221A605F
:104DD0007B68013B7B607B68002BF1D1124B00228A
:104DE0001A60104B1B68002B09D00123BB600F4BCE
:104DF0004FF080521A60BFF34F8FBFF36F8F01F0F7
:104E000005F9BB6818461037BD4680BD000F00206D
:104E1000D80E0020980E0020E00E0020080A002086
:104E2000040A0020EC0E0020E80E002004ED00E053
:104E300080B483B000AF054B1B687B607B6818466D
:104E40000C37BD465DF8047B704700BFDC0E0020C8
:104E500080B582B000AF01F087F900237B60044B7E
:104E60001B683B603B6818460837BD4680BD00BFE5
:104E7000DC0E002080B586B000AF00237B614F4B75
:104E80001B68002B40F090804D4B1B6801333B6149
:104E90004B4A3B6913603B69002B21D1494B1B688E
:104EA0001B68002B0BD04FF0500383F31188BFF326
:104EB0006F8FBFF34F8F3B6000BF00BFFDE7414BDB
:104EC0001B68FB60404B1B683E4A13603E4AFB6810
:104ED00013603E4B1B6801333C4A136000F0D4FA68
:104EE0003B4B1B683A699A4249D3364B1B681B6897
:104EF000002B04D1364B4FF0FF321A603FE0314BAC
:104F00001B68DB68DB68BB60BB685B687B603A6919
:104F10007B689A4203D22E4A7B6813602FE0BB68FD
:104F200004331846FEF76AFFBB689B6A002B04D067
:104F3000BB6818331846FEF761FFBB68DA6A254B79
:104F40001B689A4203D9BB68DB6A224A1360BB68BC
:104F5000DA6A13469B0013449B001F4A1A44BB683D
:104F6000043319461046FEF7ECFEBB68DA6A1B4BA9
:104F70001B68DB6A9A42B8D301237B61B5E7174B04
:104F80001B68DA6A144913469B0013449B000B44C8
:104F90001B68012B01D901237B61114B1B68002B7E
:104FA00007D001237B6104E00E4B1B6801330D4ADF
:104FB00013607B6918461837BD4680BD000F00207E
:104FC000DC0E0020900E0020940E0020F00E002039
:104FD000F80E0020E00E0020080A0020040A00203D
:104FE000EC0E0020E80E002080B485B000AF284B06
:104FF0001B68002B03D0274B01221A6042E0254B8F
:1050000000221A60244B1B68FB6011E0FB68002B38
:105010000BD14FF0500383F31188BFF36F8FBFF3B1
:105020004F8F7B6000BF00BFFDE7FB68013BFB606B
:105030001A49FA6813469B0013449B000B441B68F3
:10504000002BE3D0FA6813469B0013449B00134ADD
:105050001344BB60BB685B685A68BB685A60BB6836
:105060005A68BB6808339A4204D1BB685B685A68C7
:10507000BB685A60BB685B68DB68094A1360064A14
:10508000FB68136000BF1437BD465DF8047B7047B2
:10509000000F0020EC0E0020E00E0020080A002087
:1050A000040A002080B584B000AF786039607B6866
:1050B000002B0BD14FF0500383F31188BFF36F8F98
:1050C000BFF34F8FFB6000BF00BFFDE7074B1B68BE
:1050D000183319467868FEF758FE0121386800F049
:1050E00081FA00BF1037BD4680BD00BF040A002012
:1050F00080B586B000AFF860B9607A60FB68002BBD
:105100000BD14FF0500383F31188BFF36F8FBFF3C0
:105110004F8F7B6100BF00BFFDE70A4B1B68183350
:105120001946F868FEF70DFE7B68002B02D04FF0A1
:10513000FF33BB607968B86800F054FA00BF1837D5
:10514000BD4680BD040A002080B586B000AF7860FF
:105150007B68DB68DB683B613B69002B0BD14FF060
:10516000500383F31188BFF36F8FBFF34F8FFB6042
:1051700000BF00BFFDE73B6918331846FEF73EFE4F
:105180001D4B1B68002B1DD13B6904331846FEF7ED
:1051900035FE3B69DA6A194B1B689A4203D93B69B1
:1051A000DB6A164A13603B69DA6A13469B001344B4
:1051B0009B00134A1A443B69043319461046FEF714
:1051C000C0FD05E03B69183319460E48FEF7B9FDEE
:1051D0003B69DA6A0C4B1B68DB6A9A4205D90123EA
:1051E0007B610A4B01221A6001E000237B617B692D
:1051F00018461837BD4680BD000F0020E00E002085
:10520000080A0020980E0020040A0020EC0E00205E
:1052100080B483B000AF7860064B1A687B681A6070
:10522000054B1A687B685A6000BF0C37BD465DF8B5
:10523000047B7047F00E0020DC0E002080B588B0A3
:1052400000AF786039607B68002B0BD14FF05003C2
:1052500083F31188BFF36F8FBFF34F8F3B6100BFA4
:1052600000BFFDE73B68002B0BD14FF0500383F3E9
:105270001188BFF36F8FBFF34F8FFB6000BF00BF7C
:10528000FDE700F091FE1D4B1B68BB617B685B680E
:10529000BA69D31A7B613B681B68B3F1FF3F02D147
:1052A0000023FB6123E07B681A68154B1B689A4258
:1052B00007D07B685B68BA699A4202D30123FB611D
:1052C00015E03B681B687A699A420BD23B681A6802
:1052D0007B69D21A3B681A607868FFF799FF002350
:1052E000FB6104E03B6800221A600123FB6100F0CF
:1052F0008DFEFB6918462037BD4680BDDC0E0020C0
:10530000F00E002080B400AF034B01221A6000BFF2
:10531000BD465DF8047B7047EC0E002080B582B07E
:1053200000AF786000F052F8064B1B68012BF9D9EA
:10533000054B4FF080521A60BFF34F8FBFF36F8F52
:10534000F0E700BF080A002004ED00E080B582B05D
:1053500000AF00237B600CE07A6813469B00134487
:105360009B00124A13441846FEF7BEFC7B680133CB
:105370007B607B68372BEFD90D48FEF7B5FC0D48F5
:10538000FEF7B2FC0C48FEF7AFFC0C48FEF7ACFC95
:105390000B48FEF7A9FC0B4B054A1A600A4B054A5D
:1053A0001A6000BF0837BD4680BD00BF080A002054
:1053B000680E00207C0E0020980E0020AC0E00200D
:1053C000C40E0020900E0020940E002080B582B004
:1053D00000AF19E000F0E8FD104BDB68DB687B6094
:1053E0007B6804331846FEF709FD0D4B1B68013B33
:1053F0000B4A13600B4B1B68013B0A4A136000F019
:1054000005FE786800F010F8064B1B68002BE1D110
:1054100000BF00BF0837BD4680BD00BFAC0E0020F6
:10542000D80E0020C00E002080B584B000AF786098
:105430007B6893F85930002B08D17B681B6B1846AA
:1054400000F0A2FF786800F09FFF19E07B6893F8F6
:105450005930012B03D1786800F096FF10E07B688B
:1054600093F85930022B0BD04FF0500383F311887F
:10547000BFF36F8FBFF34F8FFB6000BF00BFFDE72F
:1054800000BF1037BD4680BD80B483B000AF0C4B69
:105490001B681B68002B04D10A4B4FF0FF321A60C7
:1054A00008E0074B1B68DB68DB687B607B685B6838
:1054B000044A136000BF0C37BD465DF8047B70479B
:1054C000900E0020F80E002080B483B000AF0B4B8C
:1054D0001B68002B02D101237B6008E0084B1B688E
:1054E000002B02D102237B6001E000237B607B68FC
:1054F00018460C37BD465DF8047B7047E40E00206B
:10550000000F002080B586B000AF78607B683B61FB
:1055100000237B617B68002B58D02F4B1B683A69B6
:105520009A420BD04FF0500383F31188BFF36F8F73
:10553000BFF34F8FFB6000BF00BFFDE73B691B6DF2
:10554000002B0BD14FF0500383F31188BFF36F8F03
:10555000BFF34F8FBB6000BF00BFFDE73B691B6D12
:105560005A1E3B691A653B69DA6A3B69DB6C9A42F1
:105570002CD03B691B6D002B28D13B6904331846A6
:10558000FEF73CFC3B69DA6C3B69DA623B69DB6A3B
:10559000C3F138023B699A613B69DA6A0F4B1B68B9
:1055A0009A4203D93B69DB6A0C4A13603B69DA6AA9
:1055B00013469B0013449B00094A1A443B69043379
:1055C00019461046FEF7BDFB01237B617B69184637
:1055D0001837BD4680BD00BF040A0020E00E002041
:1055E000080A002080B584B000AF78603960214B94
:1055F0001B68FB60204B1B6804331846FEF7FEFB5C
:105600007B68B3F1FF3F0AD13B68002B07D01A4BF0
:105610001B68043319461948FEF793FB26E0FA6825
:105620007B681344BB60144B1B68BA685A60BA6845
:10563000FB689A4209D2124B1A680F4B1B6804335D
:1056400019461046FEF7A1FB10E00E4B1A680A4BF4
:105650001B68043319461046FEF797FB0A4B1B687C
:10566000BA689A4202D2084ABB68136000BF10377A
:10567000BD4680BDDC0E0020040A0020C40E0020C0
:10568000940E0020900E0020F80E002080B58AB005
:1056900004AF00237B6100F013FB1D4B1B68002B44
:1056A00021D00023FB600023BB603A1D07F10801F5
:1056B00007F10C031846FEF7FDFA7968BB68FA6833
:1056C000029201930223009300230A4611491248D3
:1056D000FFF7F4F80346114A1360104B1B68002BC8
:1056E00001D001237B617B69002B0BD14FF050036C
:1056F00083F31188BFF36F8FBFF34F8F3B6100BF00
:1057000000BFFDE77B6918461837BD4680BD00BF66
:10571000340F0020B0B0000859580008380F00209E
:1057200080B58AB000AFF860B9607A603B60002352
:105730007B62FB68002B0BD14FF0500383F3118881
:10574000BFF36F8FBFF34F8F3B6200BF00BFFDE71A
:10575000194B1B68002B2AD0BB683B617B687B61BF
:10576000FB68BB61BB68052B18DCFFF7ADFE034689
:10577000022B09D1104B186807F1100100233A6B76
:10578000FEF7ACFC786212E00B4B186807F11001D1
:1057900000230022FEF7A2FC786208E0064B18689E
:1057A00007F1100100233A68FEF79AFD78627B6AE0
:1057B00018462837BD4680BD340F002080B588B01C
:1057C00002AF78603960234B1B68DB68DB687B6164
:1057D0007B6904331846FEF711FB7B6993F8283088
:1057E00003F00403002B23D07B699A697B68D118EE
:1057F0007B683A68786900F0D5F80346002B20D022
:105800000023009300237A6800217869FFF788FF5E
:1058100038613B69002B14D14FF0500383F311889A
:10582000BFF36F8FBFF34F8FFB6000BF00BFFDE77B
:105830007B6993F8283023F00103DAB27B6983F89F
:1058400028207B691B6A7869984700BF1837BD46D6
:1058500080BD00BF2C0F002080B584B000AF786001
:1058600007F10803184600F059F8F860BB681946BC
:10587000F86800F005F800F0D7F800BFF0E7000086
:1058800080B584B000AF78603960FFF725FA07F182
:105890000803184600F066F8F860BB68002B30D1AA
:1058A0003B68002B0AD17A68FB689A4206D8FFF75A
:1058B00021FAF9687868FFF781FF24E03B68002B44
:1058C00008D0134B1B681B68002B01D1012300E09B
:1058D00000233B600F4B18687A68FB68D31A3A685C
:1058E0001946FEF7B7FFFFF705FA0346002B0AD16A
:1058F000094B4FF080521A60BFF34F8FBFF36F8F89
:1059000001E0FFF7F7F900BF1037BD4680BD00BFCB
:10591000300F0020340F002004ED00E080B485B08B
:1059200000AF78600E4B1B681B68002B01D1012271
:1059300000E000227B681A607B681B68002B05D1A1
:10594000074B1B68DB681B68FB6001E00023FB6002
:10595000FB6818461437BD465DF8047B704700BFEE
:105960002C0F002080B584B000AF7860FFF760FA9C
:10597000F8600B4B1B68FA689A4205D200F03AF9BE
:105980007B6801221A6002E07B6800221A60044AE8
:10599000FB681360FB6818461037BD4680BD00BF2A
:1059A0003C0F002080B586B000AFF860B9607A6027
:1059B0003B6000237B61FB68BA685A60FB68FA6849
:1059C0001A61BA687B689A4212D87A683B68D21A20
:1059D000FB689B699A4202D301237B611BE0104B59
:1059E0001A68FB68043319461046FEF7CEF912E038
:1059F0007A683B689A4206D2BA683B689A4202D3F8
:105A000001237B6107E0074B1A68FB6804331946E2
:105A10001046FEF7BAF97B6918461837BD4680BDB7
:105A2000300F00202C0F002080B58EB002AFCEE0EA
:105A30007B68002B19DA3B1D0433FB62FB6A002BE9
:105A40000BD14FF0500383F31188BFF36F8FBFF377
:105A50004F8FFB6100BF00BFFDE7FB6A1B68FA6A5E
:105A60005068FA6A9268114698477B68002BC0F22A
:105A7000AE80FB68BB62BB6A5B69002B04D0BB6A6B
:105A800004331846FEF7BAF93B461846FFF76AFF9B
:105A900078627B68092B00F2978001A252F823F00C
:105AA000C95A0008C95A0008C95A00083F5B0008D3
:105AB000535B00089F5B0008C95A0008C95A0008D8
:105AC0003F5B0008535B0008BB6A93F8283043F043
:105AD0000103DAB2BB6A83F82820BA68BB6A9B6903
