:020000040800F2
:100000000000022065170008511400085914000868
:100010006114000869140008711400080000000051
:1000200000000000000000000000000081530008F4
:100030007914000800000000D155000815310008AF
:10004000B5170008B5170008B5170008B517000860
:10005000B5170008B5170008B5170008B517000850
:10006000B5170008B5170008B5170008B517000840
:10007000B5170008B5170008B5170008B517000830
:10008000B5170008B5170008B517000800000000F4
:10009000000000000000000000000000B51700088C
:1000A000B517000889140008B5170008B51700082F
:1000B000B5170008B5170008B5170008B5170008F0
:1000C000B5170008B5170008B5170008B5170008E0
:1000D000B5170008B5170008B517000800000000A4
:1000E000B5170008B5170008B51700080000000094
:1000F000000000000000000000000000B51700082C
:1001000000000000B5170008B5170008B517000873
:1001100000000000000000000000000000000000DF
:10012000B5170008B5170008B5170008B51700087F
:10013000B5170008000000000000000000000000EB
:10014000000000000000000000000000B5170008DB
:10015000B5170008B5170008B5170008B51700084F
:10016000B5170008B51700080000000000000000E7
:10017000000000000000000000000000000000007F
:1001800000000000B517000800000000000000009B
:08019000B5170008B5170008BF
:1001A00010B5054C237833B9044B13B10448AFF3B1
:1001B00000800123237010BDD80100200000000042
:1001C000ECA2000808B5034B1BB103490348AFF389
:1001D000008008BD00000000DC010020ECA2000847
:1001E00001F0FF01102A2BDB10F0070F08D010F8E8
:1001F000013B013A8B422DD010F0070F42B3F6D1EC
:10020000F0B441EA012141EA014122F007047FF004
:1002100000070023F0E80256083C85EA010586EA5B
:10022000010685FA47F5A3FA87F586FA47F6A5FA97
:1002300087F68EB9EED1F0BC01F0FF0102F00702A3
:1002400032B110F8013B013A83EA010313B1F8D14E
:100250000020704701387047002D06BF354603382F
:10026000073815F0010F07D1013015F4807F02BF68
:10027000013015F4C03F0130F0BC0138704700BFB9
:10028000034613F8012B002AFBD1181A01387047D6
:1002900081F0004102E000BF83F0004330B54FEA37
:1002A00041044FEA430594EA050F08BF90EA020FA4
:1002B0001FBF54EA000C55EA020C7FEA645C7FEA37
:1002C000655C00F0E2804FEA5454D4EB5555B8BF5A
:1002D0006D420CDD2C4480EA020281EA030382EACB
:1002E000000083EA010180EA020281EA0303362D5D
:1002F00088BF30BD11F0004F4FEA01314FF4801C30
:100300004CEA113102D0404261EB410113F0004F41
:100310004FEA03334CEA133302D0524263EB4303F8
:1003200094EA050F00F0A780A4F10104D5F1200E96
:100330000DDB02FA0EFC22FA05F2801841F10001F1
:1003400003FA0EF2801843FA05F359410EE0A5F1C5
:1003500020050EF1200E012A03FA0EFC28BF4CF0F6
:10036000020C43FA05F3C01851EBE37101F00045AC
:1003700007D54FF0000EDCF1000C7EEB00006EEBB9
:100380000101B1F5801F1BD3B1F5001F0CD3490843
:100390005FEA30004FEA3C0C04F101044FEA44529A
:1003A00012F5800F80F09A80BCF1004F08BF5FEA21
:1003B000500C50F1000041EB045141EA050130BD01
:1003C0005FEA4C0C404141EB0101013C28BFB1F513
:1003D000801FE9D291F0000F04BF01460020B1FA5E
:1003E00081F308BF2033A3F10B03B3F120020CDA31
:1003F0000C3208DD02F1140CC2F10C0201FA0CF00F
:1004000021FA02F10CE002F11402D8BFC2F1200C73
:1004100001FA02F120FA0CFCDCBF41EA0C01904029
:10042000E41AA2BF01EB0451294330BD6FEA040472
:100430001F3C1CDA0C340EDC04F11404C4F120025D
:1004400020FA04F001FA02F340EA030021FA04F36F
:1004500045EA030130BDC4F10C04C4F1200220FAC6
:1004600002F001FA04F340EA0300294630BD21FA04
:1004700004F0294630BD94F0000F83F4801306BFCA
:1004800081F480110134013D4EE77FEA645C18BFBE
:100490007FEA655C29D094EA050F08BF90EA020F55
:1004A00005D054EA000C04BF1946104630BD91EA4D
:1004B000030F1EBF0021002030BD5FEA545C05D150
:1004C0004000494128BF41F0004130BD14F580048F
:1004D0003CBF01F5801130BD01F0004545F0FE4103
:1004E00041F470014FF0000030BD7FEA645C1ABF38
:1004F000194610467FEA655C1CBF0B46024650EA6F
:10050000013406BF52EA033591EA030F41F400219A
:1005100030BD00BF90F0000F04BF0021704730B520
:100520004FF4806404F132044FF000054FF00001F5
:1005300050E700BF90F0000F04BF0021704730B5B6
:100540004FF4806404F1320410F0004548BF40428B
:100550004FF000013EE700BF42004FEAE2014FEAE0
:1005600031014FEA02701FBF12F07F4393F07F4FBB
:1005700081F06051704732F07F4208BF704793F0BE
:100580007F4F04BF41F40021704730B54FF46074D1
:1005900001F0004521F000411CE700BF50EA0102D4
:1005A00008BF704730B54FF000050AE050EA01027D
:1005B00008BF704730B511F0004502D5404261EBED
:1005C00041014FF4806404F132045FEA915C3FF42E
:1005D000D8AE4FF003025FEADC0C18BF03325FEACB
:1005E000DC0C18BF033202EBDC02C2F1200300FA7C
:1005F00003FC20FA02F001FA03FE40EA0E0021FAA1
:1006000002F11444BDE600BF70B54FF0FF0C4CF48E
:10061000E06C1CEA11541DBF1CEA135594EA0C0F40
:1006200095EA0C0F00F0DEF82C4481EA030621EA7B
:100630004C5123EA4C5350EA013518BF52EA0335B6
:1006400041F4801143F4801338D0A0FB02CE4FF068
:100650000005E1FB02E506F00042E0FB03E54FF098
:100660000006E1FB03569CF0000F18BF4EF0010E90
:10067000A4F1FF04B6F5007F64F5407404D25FEA8C
:100680004E0E6D4146EB060642EAC62141EA55513F
:100690004FEAC52040EA5E504FEACE2EB4F1FD0C81
:1006A00088BFBCF5E06F1ED8BEF1004F08BF5FEAFF
:1006B000500E50F1000041EB045170BD06F00046B1
:1006C00046EA010140EA020081EA0301B4EB5C045E
:1006D000C2BFD4EB0C0541EA045170BD41F4801156
:1006E0004FF0000E013C00F3AB8014F1360FDEBF7B
:1006F000002001F0004170BDC4F10004203C35DA57
:100700000C341BDC04F11404C4F1200500FA05F3D9
:1007100020FA04F001FA05F240EA020001F000427A
:1007200021F0004110EBD37021FA04F642EB0601F0
:100730005EEA430E08BF20EAD37070BDC4F10C041A
:10074000C4F1200500FA04F320FA05F001FA04F2DE
:1007500040EA020001F0004110EBD37041F10001CA
:100760005EEA430E08BF20EAD37070BDC4F12005D5
:1007700000FA05F24EEA020E20FA04F301FA05F23D
:1007800043EA020321FA04F001F0004121FA04F2E5
:1007900020EA020000EBD3705EEA430E08BF20EAB5
:1007A000D37070BD94F0000F0FD101F000464000EF
:1007B00041EB010111F4801F08BF013CF7D041EA71
:1007C000060195F0000F18BF704703F00046520075
:1007D00043EB030313F4801F08BF013DF7D043EA46
:1007E0000603704794EA0C0F0CEA135518BF95EAFC
:1007F0000C0F0CD050EA410618BF52EA4306D1D183
:1008000081EA030101F000414FF0000070BD50EAA1
:10081000410606BF1046194652EA430619D094EA2B
:100820000C0F02D150EA013613D195EA0C0F05D115
:1008300052EA03361CBF104619460AD181EA030169
:1008400001F0004141F0FE4141F470014FF0000021
:1008500070BD41F0FE4141F4780170BD70B54FF0BC
:10086000FF0C4CF4E06C1CEA11541DBF1CEA13553C
:1008700094EA0C0F95EA0C0F00F0A7F8A4EB05041E
:1008800081EA030E52EA03354FEA013100F0888015
:100890004FEA03334FF0805545EA131343EA1263DE
:1008A0004FEA022245EA111545EA10654FEA002693
:1008B0000EF000419D4208BF964244F1FD0404F54C
:1008C000407402D25B084FEA3202B61A65EB0305A8
:1008D0005B084FEA32024FF480104FF4002CB6EB65
:1008E000020E75EB030E22BFB61A754640EA0C00E5
:1008F0005B084FEA3202B6EB020E75EB030E22BF25
:10090000B61A754640EA5C005B084FEA3202B6EB65
:10091000020E75EB030E22BFB61A754640EA9C0024
:100920005B084FEA3202B6EB020E75EB030E22BFF4
:10093000B61A754640EADC0055EA060E18D04FEAB2
:10094000051545EA16754FEA06164FEAC30343EA52
:1009500052734FEAC2025FEA1C1CC0D111F4801F1F
:100960000BD141EA00014FF000004FF0004CB6E718
:1009700011F4801F04BF01430020B4F1FD0C88BFB7
:10098000BCF5E06F3FF6AFAEB5EB030C04BFB6EBC2
:10099000020C5FEA500C50F1000041EB045170BDB5
:1009A0000EF0004E4EEA113114EB5C04C2BFD4EBE2
:1009B0000C0541EA045170BD41F480114FF0000E66
:1009C000013C90E645EA060E8DE60CEA135594EAE2
:1009D0000C0F08BF95EA0C0F3FF43BAF94EA0C0FE5
:1009E0000AD150EA01347FF434AF95EA0C0F7FF45A
:1009F00025AF104619462CE795EA0C0F06D152EAAE
:100A000003353FF4FDAE1046194622E750EA410691
:100A100018BF52EA43067FF4C5AE50EA41047FF4A2
:100A20000DAF52EA43057FF4EBAE12E74FF0FF3C07
:100A300006E000BF4FF0010C02E000BF4FF0010CD8
:100A40004DF804CD4FEA410C7FEA6C5C4FEA430C51
:100A500018BF7FEA6C5C1BD001B050EA410C0CBFA0
:100A600052EA430C91EA030F02BF90EA020F002002
:100A7000704710F1000F91EA030F58BF994208BF69
:100A800090422CBFD8176FEAE37040F00100704726
:100A90004FEA410C7FEA6C5C02D150EA013C07D17D
:100AA0004FEA430C7FEA6C5CD6D152EA033CD3D0C8
:100AB0005DF8040B704700BF8446104662468C46C2
:100AC0001946634600E000BF01B5FFF7B7FF0028F5
:100AD00048BF10F1000F01BD4DF808EDFFF7F4FF1E
:100AE0000CBF012000205DF808FB00BF4DF808EDA9
:100AF000FFF7EAFF34BF012000205DF808FB00BFCC
:100B00004DF808EDFFF7E0FF94BF012000205DF8ED
:100B100008FB00BF4DF808EDFFF7CEFF94BF0120A2
:100B200000205DF808FB00BF4DF808EDFFF7C4FF9B
:100B300034BF012000205DF808FB00BF4FEA410CE4
:100B40007FEA6C5C02D150EA013C0AD14FEA430CC7
:100B50007FEA6C5C02D152EA033C02D14FF0000004
:100B600070474FF0010070474FEA410212F5001242
:100B700015D211D56FF47873B3EB625212D94FEAE4
:100B8000C12343F0004343EA505311F0004F23FACE
:100B900002F018BF404270474FF00000704750EA23
:100BA000013005D111F0004008BF6FF000407047E0
:100BB0004FF00000704700BF4A0011D212F500123A
:100BC00011D20DD56FF47873B3EB62520ED44FEAA5
:100BD000C12343F0004343EA505323FA02F0704725
:100BE0004FF00000704750EA013002D14FF0FF3063
:100BF00070474FF0000070474FEA4102B2F1E04306
:100C000024BFB3F5001CDCF1FE5C0DD901F0004CF3
:100C10004FEAC0024CEA5070B2F1004F40EB830043
:100C200008BF20F00100704711F0804F21D113F16F
:100C30003872BCBF01F00040704741F480114FEAA8
:100C40005252C2F11802C2F1200C10FA0CF320FA31
:100C500002F018BF40F001004FEAC1234FEAD3234E
:100C600003FA0CFC40EA0C0023FA02F34FEA4303B8
:100C7000CCE77FEA625307D150EA01331EBF4FF041
:100C8000FE4040F44000704701F0004040F0FE405C
:100C900040F40000704700BF53B94AB9002908BFAB
:100CA00000281CBF4FF0FF314FF0FF3000F0A0B91B
:100CB000ADF1080C6DE904CE00F03CF8DDF804E07D
:100CC000DDE9022304B0704738B500220023044652
:100CD0000D46FFF70BFF28B920462946BDE83840EE
:100CE00000F00AB8204605F1004100F005F8404246
:100CF00061EB410138BD00BFD0B50C4B0022064668
:100D00000F46FFF781FCFFF757FF0446FFF702FC91
:100D1000074B0022FFF778FC02460B463046394667
:100D2000FFF7BAFAFFF748FF2146D0BD0000F03DBB
:100D30000000F0412DE9F047089D0C46002B4ED1F4
:100D400094468C458646B2FA82F262D94AB1C2F123
:100D50002003914020FA03F30CFA02FC194300FA35
:100D600002FE4FEA1C471FFA8CF6B1FBF7F44FEA7C
:100D70001E4307FB141143EA014304FB06F19942A9
:100D80000AD91CEB030304F1FF3080F01281994271
:100D900040F20F81023C6344591A1FFA8EF3B1FBF3
:100DA000F7F007FB101143EA014300FB06F69E42F1
:100DB0000AD91CEB030300F1FF3180F0FC809E4256
:100DC00040F2F980634402389B1B40EA0440002152
:100DD0001DB1D3400022C5E90032BDE8F0878B4247
:100DE00005D90DB1C5E9000100210846F5E7B3FAC0
:100DF00083F1002946D1A34202D39042C0F0F08093
:100E0000861A64EB03030120002DE6D0C5E90063D8
:100E1000E3E7002A40F09080A1EB0C044FEA1C4865
:100E20001FFA8CF70121B4FBF8F64FEA1E4308FBCA
:100E3000164443EA044307FB06F0984208D91CEB2A
:100E4000030306F1FF3402D2984200F2CD80264619
:100E50001C1A1FFA8EF3B4FBF8F008FB104443EAA7
:100E6000044300FB07F79F4208D91CEB030300F182
:100E7000FF3402D29F4200F2B0802046DB1B40EAE2
:100E80000640A5E7C1F120068B4022FA06F71F4372
:100E900020FA06FC04FA01F343EA0C03F44000FADA
:100EA00001F8380C4FEA1349B4FBF0FE1FFA87FC37
:100EB00000FB1E4449EA04440EFB0CF9A14502FA6A
:100EC00001F20AD93C190EF1FF3A80F08480A14565
:100ED00040F28180AEF1020E3C44A4EB09041FFAFB
:100EE00083F9B4FBF0F300FB134449EA044403FB29
:100EF0000CFCA44507D93C1903F1FF3067D2A44587
:100F000065D9023B3C4443EA0E40A0FB0293A4EBAC
:100F10000C049C42CE469C4651D34ED055B1B8EB02
:100F20000E0364EB0C0404FA06F6CB401E43CC40DF
:100F3000C5E90064002150E7C2F1200320FA03F163
:100F40000CFA02FC24FA03F394400C434FEA1C48C9
:100F500000FA02FE1FFA8CF7B3FBF8F008FB103121
:100F6000230C43EA014300FB07F1994208D91CEB2B
:100F7000030300F1FF362CD299422AD90238634488
:100F80005B1AA4B2B3FBF8F108FB113344EA034443
:100F900001FB07F3A34208D91CEB040401F1FF365F
:100FA00013D2A34211D902396444E41A41EA004140
:100FB00039E70446F0E6084606E7C845AED2B9EB85
:100FC000020E63EB070C0138A8E73146EDE7034654
:100FD00099E73046D4E7D6467FE7634402384DE7C9
:100FE0000646234608460FE7023E634430E700BF4B
:100FF000704700BF80B582B002AF002204210520F7
:1010000002F0BBFA0346154A1360144B1B68002B11
:1010100020D0002301931823009300234FF4007283
:101020000F49104802F078FF002301931823009322
:1010300000234FF400720C490C4802F06DFF0023AE
:1010400001931923009300234FF4007208490948C3
:1010500002F062FF00BFBD4680BD00BFF40100206A
:1010600014A30008791000081CA30008B1100008A0
:1010700024A30008E910000880B584B000AF7860B0
:101080000023BB606423BB60074B186807F10801AD
:101090000023002202F0D0FAF860FB68012BF1D0A7
:1010A000024805F0DFFCEDE7F401002030A3000862
:1010B00080B584B000AF78600023BB60C823BB60FC
:1010C000074B186807F108010023002202F0B4FA68
:1010D000F860FB68012BF1D0024805F0C3FCEDE796
:1010E000F40100205CA3000880B586B000AF7860F2
:1010F0000023FB6064237B61104B1B68184602F0E1
:101100001DFD0346002B02D00D4805F0ABFC0B4B38
:101110001B6807F10C017A69184602F02DFC386152
:101120003B69012B05D1FB681946064805F032FCE6
:10113000E2E7054805F096FCDEE700BFF401002079
:1011400088A30008A0A30008B0A3000880B588B059
:1011500000AF07F10C0300221A605A609A60DA604F
:101160001A610023BB60204B1B6B1F4A43F0040332
:1011700013631D4B1B6B03F00403BB60BB680023B0
:101180007B60194B1B6B184A43F080031363164BAB
:101190001B6B03F080037B607B6800233B60124B7A
:1011A0001B6B114A43F0010313630F4B1B6B03F0DE
:1011B00001033B603B6801224FF400510B4800F0F3
:1011C000A3FD4FF40053FB6001233B6100237B61CF
:1011D0000023BB6107F10C031946044800F010FC22
:1011E00000BF2037BD4680BD0038024000080240E5
:1011F00080B500AF00F0E0FA00F00CF8FFF7A6FFB2
:1012000000F024FA01F0A0FFFFF7F4FE01F0C0FFA8
:1012100000BFFDE780B594B000AF07F12003302296
:101220000021184605F01EFD07F10C0300221A608C
:101230005A609A60DA601A610023BB60274B1B6C0E
:10124000264A43F080531364244B1B6C03F08053F5
:10125000BB60BB6800237B60214B1B68204A43F4C2
:10126000404313601E4B1B6803F440437B607B6864
:1012700002233B620123FB6210233B630223BB6317
:101280000023FB6308233B6464237B640223BB6469
:101290000423FB6407F12003184600F04FFD0346CA
:1012A000002B01D000F030F80F23FB6002233B61DC
:1012B00000237B614FF48053BB610023FB6107F186
:1012C0000C030321184600F0B1FF0346002B01D0A8
:1012D00000F01AF800BF5037BD4680BD003802400C
:1012E0000070004080B582B000AF78607B681B68FA
:1012F000044A934201D100F081FA00BF0837BD468D
:1013000080BD00BF0000014080B400AF72B600BFD6
:1013100000BFFDE780B582B000AF00237B60124BB9
:101320005B6C114A43F4804353640F4B5B6C03F4D2
:1013300080437B607B6800233B600B4B1B6C0A4A3D
:1013400043F080531364084B1B6C03F080533B60E5
:101350003B6800220F216FF0010000F027FB00BF67
:101360000837BD4680BD00BF0038024080B58CB054
:1013700000AF78600023BB6200237B620023BB6068
:101380002E4B5B6C2D4A43F0010353642B4B5B6C7B
:1013900003F00103BB60BB6807F10C0207F1100307
:1013A0001146184601F022F901F00CF9B862BB6A47
:1013B000234AA2FB03239B0C013B7B62214B224A65
:1013C0001A60204B40F2E732DA601E4A7B6A5360B3
:1013D0001C4B00221A611B4B00229A60194B002201
:1013E0009A61184801F034F9034687F82F3097F8CE
:1013F0002F30002B1BD1134801F084F9034687F8E6
:101400002F3097F82F30002B11D1192000F0EAFA75
:101410007B680F2B08D800227968192000F0C6FAE3
:101420000A4A7B68136002E0012387F82F3097F89F
:101430002F3018463037BD4680BD00BF003802400F
:1014400083DE1B43F801002000000140040000205F
:1014500080B400AF00BFFDE780B400AF00BFFDE780
:1014600080B400AF00BFFDE780B400AF00BFFDE770
:1014700080B400AF00BFFDE780B400AF00BFBD4641
:101480005DF8047B7047000080B500AF024801F0B2
:101490009BF900BF80BD00BFF801002080B400AF01
:1014A00001231846BD465DF8047B704780B582B0C5
:1014B00000AF7860396005F027FC034616221A60F9
:1014C0004FF0FF3318460837BD4680BD80B582B067
:1014D00000AF78604FF0FF317868FFF7E7FF00BF9B
:1014E000FDE780B586B000AFF860B9607A60002390
:1014F0007B610AE0AFF300800146BB685A1CBA600A
:10150000CAB21A707B6901337B617A697B689A423F
:10151000F0DB7B6818461837BD4680BD80B586B0C5
:1015200000AFF860B9607A6000237B6109E0BB68B6
:101530005A1CBA601B78184600F0FAF87B69013330
:101540007B617A697B689A42F1DB7B6818461837C1
:10155000BD4680BD80B483B000AF78604FF0FF33EC
:1015600018460C37BD465DF8047B704780B483B0E5
:1015700000AF786039603B684FF400525A60002336
:1015800018460C37BD465DF8047B704780B483B0C5
:1015900000AF7860012318460C37BD465DF8047B28
:1015A000704780B485B000AFF860B9607A600023FE
:1015B00018461437BD465DF8047B704780B586B089
:1015C00000AF7860144A154BD31A7B617B693B618D
:1015D000134B1B68002B02D1114B124A1A60104B9F
:1015E0001A687B6813443A699A4207D205F08CFB6B
:1015F00003460C221A604FF0FF3309E0084B1B68CA
:10160000FB60074B1A687B681344054A1360FB684C
:1016100018461837BD4680BD0000022000040000B7
:1016200040020020304D002080B400AF064BD3F8BC
:101630008830054A43F47003C2F8883000BFBD46C5
:101640005DF8047B704700BF00ED00E080B500AF9F
:10165000114B124A1A60104B4FF4E1325A600E4B94
:1016600000229A600C4B0022DA600B4B00221A61B8
:10167000094B0C225A61084B00229A61064B00224A
:10168000DA61054801F058FA0346002B01D0FFF754
:101690003BFE00BF80BD00BF44020020001001409F
:1016A00080B58AB000AF786007F1140300221A6099
:1016B0005A609A60DA601A617B681B68194A934223
:1016C0002CD100233B61184B5B6C174A43F010038D
:1016D0005364154B5B6C03F010033B613B690023C3
:1016E000FB60114B1B6B104A43F0010313630E4B5D
:1016F0001B6B03F00103FB60FB684FF4C0637B616D
:101700000223BB610023FB6103233B6207237B624F
:1017100007F114031946054800F072F900BF283795
:10172000BD4680BD0010014000380240000002406C
:1017300080B582B000AF786002F09CFD00BF084B1E
:101740001B6803F04003002BF9D07B68DAB2044B2E
:101750005A6002F09DFD7B6818460837BD4680BD83
:1017600000100140DFF834D0FFF75EFF0C480D4950
:101770000D4A002302E0D458C4500433C4188C42EC
:10178000F9D30A4A0A4C002301E013600432A24252
:10179000FBD305F0BFFAFFF72BFD704700000220D6
:1017A00000000020D801002040A80008D801002037
:1017B0002C4D0020FEE7000080B500AF0E4B1B68EB
:1017C0000D4A43F4007313600B4B1B680A4A43F441
:1017D00080631360084B1B68074A43F480731360EF
:1017E000032000F0D8F80F20FFF7C0FDFFF792FDAF
:1017F0000023184680BD00BF003C024080B400AF0B
:10180000064B1B781A46064B1B681344044A1360A8
:1018100000BFBD465DF8047B704700BF0800002094
:101820008C02002080B400AF034B1B681846BD46F5
:101830005DF8047B704700BF8C02002080B485B047
:1018400000AF78607B6803F00703FB600C4BDB683C
:10185000BB60BA684FF6FF031340BB60FB681A0217
:10186000BB68134343F0BF6343F40033BB60044AD7
:10187000BB68D36000BF1437BD465DF8047B70477A
:1018800000ED00E080B400AF044BDB681B0A03F0FE
:1018900007031846BD465DF8047B704700ED00E085
:1018A00080B483B000AF0346FB7197F90730002B7B
:1018B0000BDBFB7903F01F02074997F907305B093F
:1018C000012000FA02F241F8232000BF0C37BD4688
:1018D0005DF8047B704700BF00E100E080B483B096
:1018E00000AF03463960FB7197F90730002B0ADB24
:1018F0003B68DAB20C4997F907301201D2B20B44B7
:1019000083F800230AE03B68DAB20849FB7903F068
:101910000F03043B1201D2B20B441A7600BF0C37FE
:10192000BD465DF8047B704700E100E000ED00E09B
:1019300080B489B000AFF860B9607A60FB6803F0EA
:101940000703FB61FB69C3F10703042B28BF0423D2
:10195000BB61FB690433062B02D9FB69033B00E042
:1019600000237B614FF0FF32BB6902FA03F3DA43D5
:10197000BB681A407B699A404FF0FF317B6901FADE
:1019800003F3D9437B680B40134318462437BD4605
:101990005DF8047B704780B582B000AF78607868EE
:1019A000FFF74CFF00BF0837BD4680BD80B586B04D
:1019B00000AF0346B9607A60FB7300237B61FFF7D9
:1019C00061FF78617A68B9687869FFF7B1FF02460C
:1019D00097F90F3011461846FFF780FF00BF183700
:1019E000BD4680BD80B582B000AF0346FB7197F95C
:1019F00007301846FFF754FF00BF0837BD4680BDCB
:101A000080B489B000AF7860396000237B61002327
:101A10003B610023BB610023FB6159E10122FB69AB
:101A200002FA03F37B613B681B687A6913403B61F0
:101A30003A697B699A4240F048813B685B6803F0F1
:101A40000303012B05D03B685B6803F00303022B03
:101A500030D17B689B68BB61FB695B00032202FAA3
:101A600003F3DB43BA691340BB613B68DA68FB6987
:101A70005B0002FA03F3BA691343BB617B68BA697E
:101A80009A607B685B68BB610122FB6902FA03F321
:101A9000DB43BA691340BB613B685B681B0903F019
:101AA0000102FB6902FA03F3BA691343BB617B6865
:101AB000BA695A603B685B6803F00303032B17D0D5
:101AC0007B68DB68BB61FB695B00032202FA03F3FE
:101AD000DB43BA691340BB613B689A68FB695B00F2
:101AE00002FA03F3BA691343BB617B68BA69DA602F
:101AF0003B685B6803F00303022B23D1FB69DA0820
:101B00007B68083253F82230BB61FB6903F007039E
:101B10009B000F2202FA03F3DB43BA691340BB6157
:101B20003B681A69FB6903F007039B0002FA03F3A1
:101B3000BA691343BB61FB69DA087B680832B9698B
:101B400043F822107B681B68BB61FB695B000322C2
:101B500002FA03F3DB43BA691340BB613B685B687D
:101B600003F00302FB695B0002FA03F3BA69134353
:101B7000BB617B68BA691A603B685B6803F44033F9
:101B8000002B00F0A2800023FB60574B5B6C564A91
:101B900043F480435364544B5B6C03F48043FB6019
:101BA000FB68524AFB699B08023352F82330BB6141
:101BB000FB6903F003039B000F2202FA03F3DB43EC
:101BC000BA691340BB617B68494A934219D07B686C
:101BD000484A934213D07B68474A93420DD07B68B2
:101BE000464A934207D07B68454A934201D1042379
:101BF00008E0072306E0032304E0022302E00123B8
:101C000000E00023FA6902F0030292009340BA69EF
:101C10001343BB613549FB699B080233BA6941F83C
:101C20002320384B9B68BB613B69DB43BA69134097
:101C3000BB613B685B6803F48013002B03D0BA6977
:101C40003B691343BB612F4ABB6993602D4BDB6833
:101C5000BB613B69DB43BA691340BB613B685B68AE
:101C600003F40013002B03D0BA693B691343BB6133
:101C7000244ABB69D360234B5B68BB613B69DB4390
:101C8000BA691340BB613B685B6803F40033002B07
:101C900003D0BA693B691343BB611A4ABB695360FD
:101CA000184B1B68BB613B69DB43BA691340BB61DE
:101CB0003B685B6803F48033002B03D0BA693B694F
:101CC0001343BB610F4ABB691360FB690133FB61BE
:101CD000FB690F2B7FF6A2AE00BF00BF2437BD46C5
:101CE0005DF8047B704700BF0038024000380140B7
:101CF000000002400004024000080240000C0240C4
:101D000000100240003C014080B483B000AF786016
:101D10000B467B8013467B707B78002B03D07A8840
:101D20007B689A6103E07B881A047B689A6100BF34
:101D30000C37BD465DF8047B7047000080B586B067
:101D400000AF78607B68002B01D1012367E27B68DC
:101D50001B6803F00103002B75D0884B9B6803F0D0
:101D60000C03042B0CD0854B9B6803F00C03082B51
:101D700012D1824B5B6803F48003B3F5800F0BD163
:101D80007E4B1B6803F40033002B5BD07B685B68E1
:101D9000002B57D1012342E27B685B68B3F5803F9B
:101DA00006D1764B1B68754A43F4803313601DE0FF
:101DB0007B685B68B3F5A02F0CD1704B1B686F4A32
:101DC00043F4802313606D4B1B686C4A43F48033EB
:101DD00013600BE0694B1B68684A23F4803313607F
:101DE000664B1B68654A23F4802313607B685B683D
:101DF000002B13D0FFF716FD386108E0FFF712FD46
:101E000002463B69D31A642B01D9032307E25B4BDB
:101E10001B6803F40033002BF0D014E0FFF702FD41
:101E2000386108E0FFF7FEFC02463B69D31A642BD9
:101E300001D90323F3E1514B1B6803F40033002B5A
:101E4000F0D100E000BF7B681B6803F00203002BA9
:101E500063D04A4B9B6803F00C03002B0BD0474B1D
:101E60009B6803F00C03082B1CD1444B5B6803F404
:101E70008003002B16D1414B1B6803F00203002B9B
:101E800005D07B68DB68012B01D00123C7E13B4B08
:101E90001B6823F0F8027B681B69DB00374913439A
:101EA0000B603AE07B68DB68002B20D0344B0122CA
:101EB0001A60FFF7B7FC386108E0FFF7B3FC024691
:101EC0003B69D31A022B01D90323A8E12B4B1B68D2
:101ED00003F00203002BF0D0284B1B6823F0F8021C
:101EE0007B681B69DB00254913430B6015E0244B1D
:101EF00000221A60FFF796FC386108E0FFF792FCB9
:101F000002463B69D31A022B01D9032387E11B4BFD
:101F10001B6803F00203002BF0D17B681B6803F001
:101F20000803002B36D07B685B69002B16D0154B5D
:101F300001221A60FFF776FC386108E0FFF772FCB7
:101F400002463B69D31A022B01D9032367E10B4BED
:101F50005B6F03F00203002BF0D01BE0094B002263
:101F60001A60FFF75FFC38610EE0FFF75BFC02468A
:101F70003B69D31A022B07D9032350E100380240F2
:101F800000004742800E4742884B5B6F03F002031C
:101F9000002BEAD17B681B6803F00403002B00F0E0
:101FA00097800023FB75814B1B6C03F08053002B43
:101FB0000FD10023BB607D4B1B6C7C4A43F08053E8
:101FC00013647A4B1B6C03F08053BB60BB68012326
:101FD000FB75774B1B6803F48073002B18D1744B8F
:101FE0001B68734A43F480731360FFF71BFC38616E
:101FF00008E0FFF717FC02463B69D31A022B01D910
:1020000003230CE16A4B1B6803F48073002BF0D0B0
:102010007B689B68012B06D1644B1B6F634A43F0BE
:10202000010313671CE07B689B68052B0CD15F4B99
:102030001B6F5E4A43F0040313675C4B1B6F5B4AE4
:1020400043F0010313670BE0584B1B6F574A23F013
:1020500001031367554B1B6F544A23F004031367A6
:102060007B689B68002B15D0FFF7DCFB38610AE02A
:10207000FFF7D8FB02463B69D31A41F288329342FC
:1020800001D90323CBE0494B1B6F03F00203002B64
:10209000EED014E0FFF7C6FB38610AE0FFF7C2FBA1
:1020A00002463B69D31A41F28832934201D9032395
:1020B000B5E03E4B1B6F03F00203002BEED1FB7D1E
:1020C000012B05D1394B1B6C384A23F08053136424
:1020D0007B689B69002B00F0A180344B9B6803F068
:1020E0000C03082B5CD07B689B69022B41D1314BE0
:1020F00000221A60FFF796FB386108E0FFF792FBB9
:1021000002463B69D31A022B01D9032387E0274BF0
:102110001B6803F00073002BF0D17B68DA697B68E1
:102120001B6A1A437B685B6A9B011A437B689B6A44
:102130005B08013B1B041A437B68DB6A1B061B49D7
:1021400013434B601B4B01221A60FFF76BFB386196
:1021500008E0FFF767FB02463B69D31A022B01D95F
:1021600003235CE0114B1B6803F00073002BF0D0DD
:1021700054E0104B00221A60FFF754FB386108E06E
:10218000FFF750FB02463B69D31A022B01D9032308
:1021900045E0064B1B6803F00073002BF0D13DE0D7
:1021A0007B689B69012B07D1012338E0003802408E
:1021B00000700040600047421B4B5B68FB607B681F
:1021C0009B69012B28D0FB6803F480027B68DB69E4
:1021D0009A4221D1FB6803F03F027B681B6A9A4256
:1021E0001AD1FA6847F6C07313407A68526A9201AE
:1021F000934211D1FB6803F440327B689B6A5B0811
:10220000013B1B049A4207D1FB6803F070627B68B4
:10221000DB6A1B069A4201D0012300E00023184626
:102220001837BD4680BD00BF0038024080B584B07D
:1022300000AF786039607B68002B01D10123CCE0CE
:10224000684B1B6803F007033A689A420CD9654B48
:102250003A68D2B21A70634B1B6803F007033A68FE
:102260009A4201D00123B8E07B681B6803F00203A7
:10227000002B20D07B681B6803F00403002B05D0E3
:10228000594B9B68584A43F4E05393607B681B6842
:1022900003F00803002B05D0534B9B68524A43F4CC
:1022A00060439360504B9B6823F0F0027B689B680F
:1022B0004D4913438B607B681B6803F00103002BBF
:1022C00044D07B685B68012B07D1474B1B6803F444
:1022D0000033002B19D101237FE07B685B68022B60
:1022E00003D07B685B68032B07D13F4B1B6803F06F
:1022F0000073002B09D101236FE03B4B1B6803F0F7
:102300000203002B01D1012367E0374B9B6823F0C8
:1023100003027B685B68344913438B60FFF782FAE2
:10232000F8600AE0FFF77EFA0246FB68D31A41F232
:102330008832934201D903234FE02B4B9B6803F073
:102340000C027B685B689B009A42EBD1254B1B68B3
:1023500003F007033A689A420CD2224B3A68D2B291
:102360001A70204B1B6803F007033A689A4201D0A9
:10237000012332E07B681B6803F00403002B08D0C4
:10238000194B9B6823F4E0527B68DB6816491343C2
:102390008B607B681B6803F00803002B09D0124B8D
:1023A0009B6823F460427B681B69DB000E49134382
:1023B0008B6000F021F802460B4B9B681B0903F071
:1023C0000F030A49CB5C22FA03F3094A1360094B55
:1023D0001B681846FEF7CAFF002318461037BD4693
:1023E00080BD00BF003C024000380240ECA3000862
:1023F00000000020040000202DE9B04F90B000AF95
:1024000000237B630023FB6300233B630023BB6348
:10241000594B9B6803F00C03082B0DD0082B00F2DE
:10242000A180002B02D0042B03D09BE0534BBB6355
:102430009BE0534BBB6398E04F4B5B6803F03F035B
:102440007B634D4B5B6803F48003002B28D04A4B21
:102450005B689B0900223B627A623B6AC3F3080017
:102460000021474B03FB01F2002300FB03F313445D
:10247000434AA0FB0212FA620A46BA62FA6A13449D
:10248000FB627B6B0022BB61FA61D7E90623D7E9C7
:102490000A01FEF701FC02460B461346FB6353E0BC
:1024A000354B5B689B0900223B617A613B69C3F352
:1024B000080A4FF0000B52465B464FF000004FF009
:1024C0000001590141EAD261500102460B46B2EBCC
:1024D0000A0863EB0B094FF000024FF000034FEACC
:1024E000891343EA98634FEA8812B2EB080463EB5E
:1024F00009054FF000024FF00003EB0043EA54736C
:10250000E20014461D4614EB0A033B6045EB0B0347
:102510007B604FF000024FF00003D7E900452946E9
:102520008B02214643EA915321468A0210461946FE
:102530007B6B0022BB60FA60D7E90223FEF7ACFB9D
:1025400002460B461346FB630B4B5B681B0C03F008
:10255000030301335B003B63FA6B3B6BB2FBF3F3AA
:10256000BB6302E0054BBB6300BFBB6B1846403743
:10257000BD46BDE8B08F00BF003802400024F40023
:1025800040787D0180B400AF034B1B681846BD4600
:102590005DF8047B704700BF0000002080B500AFED
:1025A000FFF7F0FF0246054B9B689B0A03F0070309
:1025B0000349CB5C22FA03F3184680BD0038024081
:1025C000FCA3000880B500AFFFF7DCFF0246054B17
:1025D0009B685B0B03F007030349CB5C22FA03F310
:1025E000184680BD00380240FCA3000880B483B0C8
:1025F00000AF786039607B680F221A60124B9B68CD
:1026000003F003027B685A600F4B9B6803F0F002F3
:102610007B689A600C4B9B6803F4E0527B68DA603D
:10262000094B9B68DB0803F4E0527B681A61074B97
:102630001B6803F007023B681A6000BF0C37BD46F9
:102640005DF8047B704700BF00380240003C024048
:1026500080B582B000AF78607B68002B01D1012388
:1026600041E07B6893F83D30DBB2002B06D17B68FC
:10267000002283F83C20786800F039F87B68022259
:1026800083F83D207B681A687B680433194610463E
:1026900000F0B2F97B68012283F846207B680122B2
:1026A00083F83E207B68012283F83F207B6801226B
:1026B00083F840207B68012283F841207B68012257
:1026C00083F842207B68012283F843207B68012243
:1026D00083F844207B68012283F845207B6801222F
:1026E00083F83D20002318460837BD4680BD80B4DE
:1026F00083B000AF786000BF0C37BD465DF8047B47
:102700007047000080B485B000AF78607B6893F8B4
:102710003D30DBB2012B01D0012344E07B68022273
:1027200083F83D207B681B68DA687B681B6842F091
:102730000102DA607B681B681E4A934218D07B68EE
:102740001B68B3F1804F13D07B681B681A4A934211
:102750000ED07B681B68194A934209D07B681B68BE
:10276000174A934204D07B681B68164A934211D1E2
:102770007B681B689B6803F00703FB60FB68062B04
:1027800010D07B681B681A687B681B6842F00102E6
:102790001A6007E07B681B681A687B681B6842F058
:1027A00001021A60002318461437BD465DF8047B09
:1027B000704700BF000001400004004000080040D6
:1027C000000C00400040014080B584B000AF78604C
:1027D0007B681B68DB68FB607B681B681B69BB60F0
:1027E000BB6803F00203002B20D0FB6803F0020358
:1027F000002B1BD07B681B686FF002021A617B689C
:1028000001221A777B681B689B6903F00303002B86
:1028100003D0786800F0D2F805E0786800F0C4F8DA
:10282000786800F0D5F87B6800221A77BB6803F05F
:102830000403002B20D0FB6803F00403002B1BD003
:102840007B681B686FF004021A617B6802221A77AA
:102850007B681B689B6903F44073002B03D0786886
:1028600000F0ACF805E0786800F09EF8786800F0B9
:10287000AFF87B6800221A77BB6803F00803002BCF
:1028800020D0FB6803F00803002B1BD07B681B687B
:102890006FF008021A617B6804221A777B681B6854
:1028A000DB6903F00303002B03D0786800F086F89F
:1028B00005E0786800F078F8786800F089F87B68BF
:1028C00000221A77BB6803F01003002B20D0FB68AE
:1028D00003F01003002B1BD07B681B686FF0100205
:1028E0001A617B6808221A777B681B68DB6903F42E
:1028F0004073002B03D0786800F060F805E078683A
:1029000000F052F8786800F063F87B6800221A77CC
:10291000BB6803F00103002B0CD0FB6803F001033C
:10292000002B07D07B681B686FF001021A61786882
:10293000FEF7D8FCBB6803F08003002B0CD0FB68CB
:1029400003F08003002B07D07B681B686FF08002C8
:102950001A61786800F0E6F8BB6803F04003002BCA
:102960000CD0FB6803F04003002B07D07B681B688A
:102970006FF040021A61786800F034F8BB6803F029
:102980002003002B0CD0FB6803F02003002B07D0A2
:102990007B681B686FF020021A61786800F0B8F855
:1029A00000BF1037BD4680BD80B483B000AF7860F3
:1029B00000BF0C37BD465DF8047B704780B483B020
:1029C00000AF786000BF0C37BD465DF8047B7047F0
:1029D00080B483B000AF786000BF0C37BD465DF8AF
:1029E000047B704780B483B000AF786000BF0C37C1
:1029F000BD465DF8047B704780B485B000AF786059
:102A000039607B681B68FB607B683A4A93420FD051
:102A10007B68B3F1804F0BD07B68374A934207D075
:102A20007B68364A934203D07B68354A934208D18B
:102A3000FB6823F07003FB603B685B68FA68134334
:102A4000FB607B682B4A93421BD07B68B3F1804FBD
:102A500017D07B68284A934213D07B68274A934259
:102A60000FD07B68264A93420BD07B68254A93425D
:102A700007D07B68244A934203D07B68234A934261
:102A800008D1FB6823F44073FB603B68DB68FA689D
:102A90001343FB60FB6823F080023B685B691343D0
:102AA000FB607B68FA681A603B689A687B68DA6248
:102AB0003B681A687B689A627B680E4A934203D12E
:102AC0003B681A697B681A637B6801225A617B68DC
:102AD0001B6903F00103012B05D17B681B6923F0FF
:102AE00001027B681A6100BF1437BD465DF8047BA4
:102AF000704700BF00000140000400400008004093
:102B0000000C0040004001400044014000480140EA
:102B100080B483B000AF786000BF0C37BD465DF86D
:102B2000047B704780B483B000AF786000BF0C377F
:102B3000BD465DF8047B704780B582B000AF786019
:102B40007B68002B01D1012342E07B6893F8413080
:102B5000DBB2002B06D17B68002283F84020786826
:102B6000FEF79EFD7B68242283F841207B681B686A
:102B7000DA687B681B6822F40052DA60786800F03B
:102B80002BF87B681B681A697B681B6822F49042EB
:102B90001A617B681B685A697B681B6822F02A02ED
:102BA0005A617B681B68DA687B681B6842F40052D4
:102BB000DA607B6800225A647B68202283F8412017
:102BC0007B68202283F842207B6800225A6300231E
:102BD00018460837BD4680BD2DE9B04FC0B000AFE4
:102BE000C7F8F400D7F8F4301B681B6923F4405091
:102BF000D7F8F430D968D7F8F4301A6840EA0103FE
:102C00001361D7F8F4309A68D7F8F4301B691A4387
:102C1000D7F8F4305B691A43D7F8F430DB69134313
:102C2000C7F8F830D7F8F4301B68DB6823F4164196
:102C300021F00C01D7F8F4301A68D7F8F8300B43BC
:102C4000D360D7F8F4301B685B6923F44070D7F881
:102C5000F4309969D7F8F4301A6840EA01035361F7
:102C6000D7F8F4301A688F4B9A4205D0D7F8F43071
:102C70001A688D4B9A4204D1FFF7A4FCC7F8FC00F8
:102C800003E0FFF78BFCC7F8FC00D7F8F430DB69F2
:102C9000B3F5004F40F00C81D7F8FC300022C7F8A4
:102CA000E830C7F8EC20D7E93A4522462B46911880
:102CB000B9655B41FB65D7E91623214612EB010894
:102CC000294643EB01094FF000024FF000034FEAA1
:102CD000C90343EA58734FEAC8029046994623460F
:102CE00018EB0303C7F8E0302B4649EB0303C7F8A2
:102CF000E430D7F8F4305B680022C7F8D830C7F862
:102D0000DC20D7E936120B46DB183B65134642EB55
:102D100003037B65D7E91423D7E93801FDF7BCFF2E
:102D200002460B46614BA3FB02235B091C01D7F84B
:102D3000FC300022C7F8D030C7F8D420D7E9348956
:102D400042464B469118B9645B41FB64D7E91223B4
:102D5000414612EB010A494643EB010B4FF00002DA
:102D60004FF000034FEACB0343EA5A734FEACA021B
:102D700092469B4643461AEB0303C7F8C8304B46BE
:102D80004BEB0303C7F8CC30D7F8F4305B68002274
:102D9000C7F8C030C7F8C420D7E930120B46DB189B
:102DA0003B64134642EB03037B64D7E91023D7E966
:102DB0003201FDF771FF02460B4611463B4BA3FB68
:102DC00001235B09642202FB03F3CB1ADB0003F14E
:102DD0003202364BA3FB02235B095B0003F4F8735A
:102DE0001C44D7F8FC300022C7F8B830C7F8BC2024
:102DF000D7E92E8942464B469118B9635B41FB6384
:102E0000D7E90E2341465118396349464B417B634C
:102E10004FF000024FF00003D7E90CAB5946CB004E
:102E2000514643EA51735146CA00104619460346BB
:102E300042469B18C7F8B0304B460A4642EB0303A4
:102E4000C7F8B430D7F8F4305B680022C7F8A83070
:102E5000C7F8AC20D7E92A120B46DB18BB62134631
:102E600042EB0303FB62D7E90A23D7E92C01FDF704
:102E700013FF02460B460D4BA3FB02135B096421B3
:102E800001FB03F3D31ADB003233084AA2FB03230E
:102E90005B0903F00702D7F8F4301B6822449A60FC
:102EA00006E100BF00100140001401401F85EB51F6
:102EB000D7F8FC300022C7F8A030C7F8A420D7E923
:102EC000288942464B46911839625B417B62D7E9BB
:102ED000082341465418494643EB01054FF00002D0
:102EE0004FF00003EB0043EA5473E20014461D4622
:102EF0004346E318C7F898304B4645EB0303C7F841
:102F00009C30D7F8F4305B680022C7F89030C7F8DF
:102F100094204FF000024FF00003D7E924452946E2
:102F20008B00214643EA917321468A00D7E92601A6
:102F3000FDF7B2FE02460B46604BA3FB02235B0982
:102F40001C01D7F8FC300022C7F88830C7F88C2065
:102F5000D7E9228942464B469118B9615B41FB6132
:102F6000D7E9062341465118396149464B417B61F7
:102F70004FF000024FF00003D7E904AB5946CB00F5
:102F8000514643EA51735146CA001046194603465A
:102F900042469B18C7F880304B460A4642EB030373
:102FA000C7F88430D7F8F4305B680022BB67FA6753
:102FB0004FF000024FF00003D7E91E8949468B000D
:102FC000414643EA917341468A00D7E92001FDF763
:102FD00063FE02460B461146384BA3FB01235B09F7
:102FE000642202FB03F3CB1A1B013233334AA2FBE8
:102FF00003235B0903F0F0031C44D7F8FC300022E4
:103000003B677A67D7E91C8942464B469118B960FD
:103010005B41FB60D7E902234146511839604946BC
:103020004B417B604FF000024FF00003D7E900AB4B
:103030005946CB00514643EA51735146CA001046E7
:103040001946034642469B18BB664B460A4642EB6E
:103050000303FB66D7F8F4305B6800223B667A66B0
:103060004FF000024FF00003D7E9188949468B0062
:10307000414643EA917341468A00D7E91A01FDF7B8
:103080000BFE02460B460D4BA3FB02135B096421AA
:1030900001FB03F3D31A1B013233084AA2FB0323BB
:1030A0005B0903F00F02D7F8F4301B6822449A60E2
:1030B00000BF07F58077BD46BDE8B08F1F85EB5197
:1030C00080B483B000AF03463960FB7197F90730D5
:1030D000002B0ADB3B68DAB20C4997F90730120182
:1030E000D2B20B4483F800230AE03B68DAB2084905
:1030F000FB7903F00F03043B1201D2B20B441A76A2
:1031000000BF0C37BD465DF8047B704700E100E06E
:1031100000ED00E080B500AF054B1B6801F090FCAE
:103120000346012B01D002F087FA00BF80BD00BF2B
:1031300010E000E080B500AF00216FF00400FFF761
:10314000BFFF00BF80BD000080B483B000AFEFF3CD
:1031500005833B603B68002B03D06FF005037B6069
:103160000CE00A4B1B68002B05D1084B01221A60AA
:1031700000237B6002E04FF0FF337B607B681846E2
:103180000C37BD465DF8047B704700BF90020020FD
:1031900080B582B000AFEFF305833B603B68002B46
:1031A00003D06FF005037B6010E00B4B1B68012B15
:1031B00009D1FFF7BFFF084B02221A6000F0F2FFAF
:1031C00000237B6002E04FF0FF337B607B68184692
:1031D0000837BD4680BD00BF9002002080B485B096
:1031E00000AFF860B9607A60FB68074A1A60BB6894
:1031F000064A1A607B6880221A6000BF1437BD46F9
:103200005DF8047B704700BF94020020F0020020AC
:1032100080B485B000AFF860B9607A60FB68074A97
:103220001A60BB68064A1A607B684FF480721A60A5
:1032300000BF1437BD465DF8047B7047F0040020E2
:103240004C05002080B483B000AF78607B6803F148
:1032500008027B685A607B684FF0FF329A607B6897
:1032600003F108027B68DA607B6803F108027B687F
:103270001A617B6800221A6000BF0C37BD465DF8FA
:10328000047B704780B483B000AF78607B68002215
:103290001A6100BF0C37BD465DF8047B704780B4EF
:1032A00085B000AF786039607B685B68FB603B6825
:1032B000FA685A60FB689A683B689A60FB689B688A
:1032C0003A685A60FB683A689A603B687A681A61A3
:1032D0007B681B685A1C7B681A6000BF1437BD46A8
:1032E0005DF8047B704780B485B000AF78603960CA
:1032F0003B681B68BB60BB68B3F1FF3F03D17B68D1
:103300001B69FB600CE07B680833FB6002E0FB6834
:103310005B68FB60FB685B681B68BA689A42F6D220
:10332000FB685A683B685A603B685B683A689A6019
:103330003B68FA689A60FB683A685A603B687A684A
:103340001A617B681B685A1C7B681A6000BF1437BF
:10335000BD465DF8047B704780B485B000AF7860EF
:103360007B681B69FB607B685B687A6892689A601F
:103370007B689B687A6852685A60FB685B687A6809
:103380009A4203D17B689A68FB685A607B68002286
:103390001A61FB681B685A1EFB681A60FB681B6891
:1033A00018461437BD465DF8047B704780B584B07D
:1033B00000AF786039607B68FB60FB68002B0BD145
:1033C0004FF0500383F31188BFF36F8FBFF34F8F1C
:1033D000BB6000BF00BFFDE702F09EF8FB681A6803
:1033E000FB68DB6BF968096C01FB03F31A44FB68AB
:1033F0009A60FB6800229A63FB681A68FB685A604F
:10340000FB681A68FB68DB6B013BF968096C01FB20
:1034100003F31A44FB68DA60FB68FF2283F8442058
:10342000FB68FF2283F845203B68002B14D1FB6822
:103430001B69002B1AD0FB681033184601F040F9C5
:103440000346002B12D00D4B4FF080521A60BFF391
:103450004F8FBFF36F8F09E0FB6810331846FFF7FB
:10346000F1FEFB6824331846FFF7ECFE02F086F805
:10347000012318461037BD4680BD00BF04ED00E0B3
:1034800080B58EB002AFF860B9607A603B60FB68CF
:10349000002B0BD14FF0500383F31188BFF36F8FD4
:1034A000BFF34F8FBB6200BF00BFFDE73B68002B3F
:1034B0000BD14FF0500383F31188BFF36F8FBFF32D
:1034C0004F8F7B6200BF00BFFDE77B68002B02D0FF
:1034D000BB68002B01D0012300E00023002B0BD19F
:1034E0004FF0500383F31188BFF36F8FBFF34F8FFB
:1034F0003B6200BF00BFFDE77B68002B02D1BB68C9
:10350000002B01D1012300E00023002B0BD14FF051
:10351000500383F31188BFF36F8FBFF34F8FFB61AD
:1035200000BF00BFFDE750237B617B69502B0BD0B0
:103530004FF0500383F31188BFF36F8FBFF34F8FAA
:10354000BB6100BF00BFFDE77B693B68FB62FB6AB4
:10355000002B0DD0FB6A012283F8462097F8382013
:10356000FB6A009313467A68B968F86800F040F87F
:10357000FB6A18463037BD4680BD80B58AB002AFC1
:10358000F860B9601346FB71FB68002B0BD14FF05C
:10359000500383F31188BFF36F8FBFF34F8F3B61ED
:1035A00000BF00BFFDE7FB68BA6802FB03F3FB61E5
:1035B000FB695033184602F0D1F8B861BB69002BA3
:1035C00011D0BB697B617B6950337B61BB69002291
:1035D00083F84620FA79BB69009313467A69B96883
:1035E000F86800F005F8BB6918462037BD4680BD75
:1035F00080B584B000AFF860B9607A60FB70BB68DA
:10360000002B03D1BB69BA691A6002E0BB697A6812
:103610001A60BB69FA68DA63BB69BA681A64012187
:10362000B869FFF7C3FEBB69FA7883F84C2000BF86
:103630001037BD4680BD000080B58EB000AFF86089
:10364000B9607A603B6000237B63FB683B633B6B44
:10365000002B0BD14FF0500383F31188BFF36F8F12
:10366000BFF34F8FBB6200BF00BFFDE7BB68002BFD
:1036700003D13B6B1B6C002B01D1012300E0002325
:10368000002B0BD14FF0500383F31188BFF36F8FE2
:10369000BFF34F8F7B6200BF00BFFDE73B68022B8B
:1036A00003D13B6BDB6B012B01D1012300E0002335
:1036B000002B0BD14FF0500383F31188BFF36F8FB2
:1036C000BFF34F8F3B6200BF00BFFDE701F0B8F9C9
:1036D0000346002B02D17B68002B01D1012300E0BF
:1036E0000023002B0BD14FF0500383F31188BFF35D
:1036F0006F8FBFF34F8FFB6100BF00BFFDE701F08D
:103700000BFF3B6B9A6B3B6BDB6B9A4202D33B68C4
:10371000022B29D13A68B968386B00F02EFAF862AA
:103720003B6B5B6A002B10D03B6B2433184600F0D8
:10373000C7FF0346002B13D03F4B4FF080521A6057
:10374000BFF34F8FBFF36F8F0AE0FB6A002B07D0E8
:10375000394B4FF080521A60BFF34F8FBFF36F8F1A
:1037600001F00CFF012363E07B68002B03D101F023
:1037700005FF00235CE07B6B002B06D107F11403EF
:10378000184601F001F801237B6301F0F7FE00F019
:1037900071FD01F0C1FE3B6B93F844305BB2B3F1B5
:1037A000FF3F03D13B6B002283F844203B6B93F82F
:1037B00045305BB2B3F1FF3F03D13B6B002283F88E
:1037C000452001F0DBFE3A1D07F1140311461846AF
:1037D00000F0F0FF0346002B24D1386B00F0C5FA4F
:1037E0000346002B18D03B6B10337A6811461846FD
:1037F00000F014FF386B00F050FA00F049FD03466A
:10380000002B7FF47CAF0C4B4FF080521A60BFF35B
:103810004F8FBFF36F8F72E7386B00F03EFA00F006
:1038200037FD6CE7386B00F038FA00F031FD00230B
:1038300018463837BD4680BD04ED00E080B590B035
:1038400000AFF860B9607A603B60FB68BB63BB6B3C
:10385000002B0BD14FF0500383F31188BFF36F8F10
:10386000BFF34F8FBB6200BF00BFFDE7BB68002BFB
:1038700003D1BB6B1B6C002B01D1012300E00023A3
:10388000002B0BD14FF0500383F31188BFF36F8FE0
:10389000BFF34F8F7B6200BF00BFFDE73B68022B89
:1038A00003D1BB6BDB6B012B01D1012300E00023B3
:1038B000002B0BD14FF0500383F31188BFF36F8FB0
:1038C000BFF34F8F3B6200BF00BFFDE701F004FF75
:1038D000EFF311824FF0500383F31188BFF36F8F22
:1038E000BFF34F8FFA61BB61FB697B63BB6B9A6B64
:1038F000BB6BDB6B9A4202D33B68022B2FD1BB6BB5
:1039000093F8453087F83330BB6B9B6BFB623A68AA
:10391000B968B86B00F031F997F93330B3F1FF3F74
:1039200012D1BB6B5B6A002B16D0BB6B24331846DD
:1039300000F0C6FE0346002B0ED07B68002B0BD098
:103940007B6801221A6007E097F833300133DBB25D
:103950005AB2BB6B83F845200123FB6301E00023CF
:10396000FB637B6B7B617B6983F3118800BFFB6B1F
:1039700018464037BD4680BD80B58CB000AFF860BA
:10398000B9607A600023FB62FB68BB62BB6A002BF4
:103990000BD14FF0500383F31188BFF36F8FBFF348
:1039A0004F8F3B6200BF00BFFDE7BB68002B03D118
:1039B000BB6A1B6C002B01D1012300E00023002B0C
:1039C0000BD14FF0500383F31188BFF36F8FBFF318
:1039D0004F8FFB6100BF00BFFDE701F031F80346E8
:1039E000002B02D17B68002B01D1012300E00023D2
:1039F000002B0BD14FF0500383F31188BFF36F8F6F
:103A0000BFF34F8FBB6100BF00BFFDE701F084FD36
:103A1000BB6A9B6B7B627B6A002B1FD0B968B86A5C
:103A200000F015F97B6A5A1EBB6A9A63BB6A1B6970
:103A3000002B0FD0BB6A1033184600F041FE03463E
:103A4000002B07D03C4B4FF080521A60BFF34F8FD2
:103A5000BFF36F8F01F092FD012369E07B68002BBB
:103A600003D101F08BFD002362E0FB6A002B06D13D
:103A700007F11003184600F087FE0123FB6201F0F6
:103A80007DFD00F0F7FB01F047FDBB6A93F8443081
:103A90005BB2B3F1FF3F03D1BB6A002283F844203D
:103AA000BB6A93F845305BB2B3F1FF3F03D1BB6A09
:103AB000002283F8452001F061FD3A1D07F1100353
:103AC0001146184600F076FE0346002B23D1B86A53
:103AD00000F035F90346002B17D0BB6A24337A680F
:103AE0001146184600F09AFDB86A00F0D6F800F0CA
:103AF000CFFB0346002B89D10F4B4FF080521A6049
:103B0000BFF34F8FBFF36F8F80E7B86A00F0C5F83F
:103B100000F0BEFB7AE7B86A00F0BFF800F0B8FB2F
:103B2000B86A00F00CF90346002B3FF46FAF002396
:103B300018463037BD4680BD04ED00E080B584B046
:103B400000AF78607B68002B0BD14FF0500383F3FC
:103B50001188BFF36F8FBFF34F8FBB6000BF00BFF3
:103B6000FDE701F0D9FC7B689B6BFB6001F006FD73
:103B7000FB6818461037BD4680BD80B586B000AFE3
:103B8000F860B9607A6000237B61FB689B6B3B61E6
:103B9000FB681B6C002B0DD1FB681B68002B4DD103
:103BA000FB689B68184600F069FF7861FB6800229B
:103BB0009A6043E07B68002B19D1FB685868FB686A
:103BC0001B6C1A46B96803F0CCF8FB685A68FB68AE
:103BD0001B6C1A44FB685A60FB685A68FB689B6858
:103BE0009A422BD3FB681A68FB685A6026E0FB6890
:103BF000D868FB681B6C1A46B96803F0B2F8FB681A
:103C0000DA68FB681B6C5B421A44FB68DA60FB688D
:103C1000DA68FB681B689A4207D2FB689A68FB68FF
:103C20001B6C5B421A44FB68DA607B68022B05D18F
:103C30003B69002B02D03B69013B3B613B695A1C4D
:103C4000FB689A637B6918461837BD4680BD80B50E
:103C500082B000AF786039607B681B6C002B18D095
:103C60007B68DA687B681B6C1A447B68DA607B6867
:103C7000DA687B689B689A4203D37B681A687B6822
:103C8000DA607B68D9687B681B6C1A46386803F079
:103C900068F800BF0837BD4680BD80B584B000AF6E
:103CA000786001F039FC7B6893F84530FB7311E0D4
:103CB0007B685B6A002B12D07B682433184600F0C7
:103CC000FFFC0346002B01D000F0D8FDFB7B013B3D
:103CD000DBB2FB7397F90F30002BE9DC00E000BF8B
:103CE0007B68FF2283F8452001F048FC01F014FCBA
:103CF0007B6893F84430BB7311E07B681B69002B31
:103D000012D07B681033184600F0DAFC0346002B13
:103D100001D000F0B3FDBB7B013BDBB2BB7397F975
:103D20000E30002BE9DC00E000BF7B68FF2283F847
:103D3000442001F023FC00BF1037BD4680BD80B594
:103D400084B000AF786001F0E7FB7B689B6B002BD1
:103D500002D10123FB6001E00023FB6001F00EFCB7
:103D6000FB6818461037BD4680BD80B584B000AFF3
:103D7000786001F0D1FB7B689A6B7B68DB6B9A42C1
:103D800002D10123FB6001E00023FB6001F0F6FBA0
:103D9000FB6818461037BD4680BD000080B485B072
:103DA00000AF786039600023FB6014E00F4AFB68C5
:103DB00052F83330002B0BD10C49FB683A6841F8BC
:103DC00033200A4AFB68DB0013447A685A6006E035
:103DD000FB680133FB60FB68072BE7D900BF00BF1E
:103DE0001437BD465DF8047B704700BF4C090020C6
:103DF00080B586B000AFF860B9607A60FB687B611F
:103E000001F08AFB7B6993F844305BB2B3F1FF3F6A
:103E100003D17B69002283F844207B6993F8453005
:103E20005BB2B3F1FF3F03D17B69002283F84520E9
:103E300001F0A4FB7B699B6B002B06D17B692433CB
:103E40007A68B968184600F00FFC7869FFF725FF1B
:103E500000BF1837BD4680BD80B58EB004AFF86096
:103E6000B9607A603B607B6B002B0BD14FF0500345
:103E700083F31188BFF36F8FBFF34F8F3B6200BF97
:103E800000BFFDE7BB6B002B0BD14FF0500383F35A
:103E90001188BFF36F8FBFF34F8FFB6100BF00BF6F
:103EA000FDE75C233B613B695C2B0BD04FF050037B
:103EB00083F31188BFF36F8FBFF34F8FBB6100BFD8
:103EC00000BFFDE73B69BB6B002B1ED07B6B002B5B
:103ED0001BD0BB6B7B627B6A7A6B1A637B6A0222A4
:103EE00083F85920002303937B6A029307F114039C
:103EF00001933B6B00933B687A68B968F86800F0FF
:103F000050F8786A00F0DEF801E000237B617B69FD
:103F100018462837BD4680BD80B58CB004AFF86028
:103F2000B9603B601346FB80FB889B00184601F09C
:103F300015FC78617B69002B0ED05C2001F00EFC33
:103F4000F861FB69002B03D0FB697A691A6305E00D
:103F5000786901F0D1FC01E00023FB61FB69002BD3
:103F600017D0FB69002283F85920FA8800230393B5
:103F7000FB690293FB6A0193BB6A00933B68B968D3
:103F8000F86800F00EF8F86900F09CF80123BB61B6
:103F900002E04FF0FF33BB61BB6918462037BD46D6
:103FA00080BD80B588B000AFF860B9607A603B60D2
:103FB0003B6B186B7B689B001A46A52102F052FEF2
:103FC0003B6B1A6B7B6803F18043013B9B001344FE
:103FD000BB61BB6923F00703BB61BB6903F0070347
:103FE000002B0BD04FF0500383F31188BFF36F8F7A
:103FF000BFF34F8F7B6100BF00BFFDE7BB68002BA5
:104000001FD00023FB6112E0BA68FB6913441978E2
:104010003A6BFB69134434330A461A70BA68FB6979
:1040200013441B78002B06D0FB690133FB61FB694D
:104030000F2BE9D900E000BF3B6B002283F843203F
:1040400003E03B6B002283F83420BB6A372B01D995
:104050003723BB623B6BBA6ADA623B6BBA6ADA64DB
:104060003B6B00221A653B6B04331846FFF70AF9D5
:104070003B6B18331846FFF705F93B6B3A6B1A6137
:10408000BB6AC3F138023B6B9A613B6B3A6B5A6275
:104090003B6B00225A653B6B002283F858203A683C
:1040A000F968B86901F008F902463B6B1A60FB6ACF
:1040B000002B02D0FB6A3A6B1A6000BF2037BD4666
:1040C00080BD000080B582B000AF786001F024FAB6
:1040D0002D4B1B6801332C4A13602C4B1B68002BA3
:1040E00009D12A4A7B681360274B1B68012B10D12A
:1040F00000F0E8FB0DE0264B1B68002B09D1234B99
:104100001B68DA6A7B68DB6A9A4202D81F4A7B68BE
:104110001360204B1B6801331E4A13601D4B1A6845
:104120007B685A647B68DA6A1B4B1B689A4203D926
:104130007B68DB6A184A13607B68DA6A13469B0067
:1041400013449B00154A1A447B68043319461046F1
:10415000FFF7A5F801F012FA0D4B1B68002B0ED0EB
:104160000A4B1B68DA6A7B68DB6A9A4207D20C4BFF
:104170004FF080521A60BFF34F8FBFF36F8F00BFB5
:104180000837BD4680BD00BF600E00208C090020AE
:104190006C0E00207C0E0020680E0020900900208C
:1041A00004ED00E080B58AB004AF0023BB600023BB
:1041B0007B603A46391D07F108031846FFF70EF8F1
:1041C00039687B68BA680292019300230093002348
:1041D0000A4622492248FFF73FFE0346214A136060
:1041E000204B1B68002B02D001237B6101E00023E0
:1041F0007B617B69012B02D100F004FD78617B6952
:10420000012B16D14FF0500383F31188BFF36F8F4A
:10421000BFF34F8F3B6100BF134B4FF0FF321A606B
:10422000124B01221A60124B00221A6001F0D0F8E2
:104230000FE07B69B3F1FF3F0BD14FF0500383F3E5
:104240001188BFF36F8FBFF34F8FFB6000BF00BFBC
:10425000FDE700BF1837BD4680BD00BFD4A30008EE
:1042600095480008840E0020800E00206C0E00206F
:10427000640E002080B400AF044B1B680133034A76
:10428000136000BFBD465DF8047B7047880E0020B8
:1042900080B584B000AF0023FB600023BB60424BBD
:1042A0001B68002B0BD14FF0500383F31188BFF331
:1042B0006F8FBFF34F8F3B6000BF00BFFDE701F082
:1042C0002BF9394B1B68013B374A1360364B1B688F
:1042D000002B62D1354B1B68002B5ED02FE0344B96
:1042E000DB68DB68FB60FB6818331846FFF734F8BF
:1042F000FB6804331846FFF72FF8FB68DA6A2D4B8A
:104300001B689A4203D9FB68DB6A2A4A1360FB6880
:10431000DA6A13469B0013449B00274A1A44FB6841
:10432000043319461046FEF7BAFFFB68DA6A234BDE
:104330001B68DB6A9A4202D3214B01221A601C4B94
:104340001B68002BCBD1FB68002B01D000F058FB81
:104350001C4B1B687B607B68002B10D000F046F87C
:104360000346002B02D0164B01221A607B68013BEA
:104370007B607B68002BF1D1124B00221A60104B3E
:104380001B68002B09D00123BB600F4B4FF08052FC
:104390001A60BFF34F8FBFF36F8F01F0EFF8BB6868
:1043A00018461037BD4680BD880E0020600E0020E4
:1043B000200E0020680E0020900900208C090020AB
:1043C000740E0020700E002004ED00E080B483B075
:1043D00000AF054B1B687B607B6818460C37BD46F9
:1043E0005DF8047B704700BF640E002080B586B086
:1043F00000AF00237B614F4B1B68002B40F0908087
:104400004D4B1B6801333B614B4A3B6913603B6971
:10441000002B21D1494B1B681B68002B0BD04FF0A0
:10442000500383F31188BFF36F8FBFF34F8F3B604F
:1044300000BF00BFFDE7414B1B68FB60404B1B68A2
:104440003E4A13603E4AFB6813603E4B1B680133D3
:104450003C4A136000F0D4FA3B4B1B683A699A421D
:1044600049D3364B1B681B68002B04D1364B4FF0E9
:10447000FF321A603FE0314B1B68DB68DB68BB60D2
:10448000BB685B687B603A697B689A4203D22E4ABC
:104490007B6813602FE0BB6804331846FEF75CFFAF
:1044A000BB689B6A002B04D0BB6818331846FEF724
:1044B00053FFBB68DA6A254B1B689A4203D9BB6875
:1044C000DB6A224A1360BB68DA6A13469B00134416
:1044D0009B001F4A1A44BB68043319461046FEF776
:1044E000DEFEBB68DA6A1B4B1B68DB6A9A42B8D3F4
:1044F00001237B61B5E7174B1B68DA6A1449134641
:104500009B0013449B000B441B68012B01D9012322
:104510007B61114B1B68002B07D001237B6104E0FA
:104520000E4B1B6801330D4A13607B691846183720
:10453000BD4680BD880E0020640E0020180E0020AD
:104540001C0E0020780E0020800E0020680E002037
:10455000900900208C090020740E0020700E0020AD
:1045600080B485B000AF284B1B68002B03D0274BCD
:1045700001221A6042E0254B00221A60244B1B687E
:10458000FB6011E0FB68002B0BD14FF0500383F36D
:104590001188BFF36F8FBFF34F8F7B6000BF00BFE9
:1045A000FDE7FB68013BFB601A49FA6813469B0074
:1045B00013449B000B441B68002BE3D0FA6813469E
:1045C0009B0013449B00134A1344BB60BB685B68A9
:1045D0005A68BB685A60BB685A68BB6808339A421D
:1045E00004D1BB685B685A68BB685A60BB685B688B
:1045F000DB68094A1360064AFB68136000BF143782
:10460000BD465DF8047B7047880E0020740E0020C4
:10461000680E0020900900208C09002080B584B02D
:1046200000AF786039607B68002B0BD14FF05003EE
:1046300083F31188BFF36F8FBFF34F8FFB6000BF11
:1046400000BFFDE7074B1B68183319467868FEF773
:104650004AFE0121386800F081FA00BF1037BD46DC
:1046600080BD00BF8C09002080B586B000AFF86027
:10467000B9607A60FB68002B0BD14FF0500383F3D5
:104680001188BFF36F8FBFF34F8F7B6100BF00BFF7
:10469000FDE70A4B1B6818331946F868FEF7FFFD63
:1046A0007B68002B02D04FF0FF33BB607968B8689D
:1046B00000F054FA00BF1837BD4680BD8C090020B9
:1046C00080B586B000AF78607B68DB68DB683B61F3
:1046D0003B69002B0BD14FF0500383F31188BFF3DC
:1046E0006F8FBFF34F8FFB6000BF00BFFDE73B69DB
:1046F00018331846FEF730FE1D4B1B68002B1DD1EA
:104700003B6904331846FEF727FE3B69DA6A194B0A
:104710001B689A4203D93B69DB6A164A13603B69FE
:10472000DA6A13469B0013449B00134A1A443B6900
:10473000043319461046FEF7B2FD05E03B69183315
:1047400019460E48FEF7ABFD3B69DA6A0C4B1B6855
:10475000DB6A9A4205D901237B610A4B01221A6068
:1047600001E000237B617B6918461837BD4680BD98
:10477000880E0020680E002090090020200E0020E6
:104780008C090020740E002080B483B000AF7860E4
:10479000064B1A687B681A60054B1A687B685A607A
:1047A00000BF0C37BD465DF8047B7047780E0020D3
:1047B000640E002080B588B000AF786039607B68F7
:1047C000002B0BD14FF0500383F31188BFF36F8F91
:1047D000BFF34F8F3B6100BF00BFFDE73B68002B7D
:1047E0000BD14FF0500383F31188BFF36F8FBFF3EA
:1047F0004F8FFB6000BF00BFFDE700F08DFE1D4B3B
:104800001B68BB617B685B68BA69D31A7B613B68D4
:104810001B68B3F1FF3F02D10023FB6123E07B68FB
:104820001A68154B1B689A4207D07B685B68BA69A7
:104830009A4202D30123FB6115E03B681B687A6949
:104840009A420BD23B681A687B69D21A3B681A609D
:104850007868FFF799FF0023FB6104E03B680022C2
:104860001A600123FB6100F089FEFB6918462037BE
:10487000BD4680BD640E0020780E002080B400AFDD
:10488000034B01221A6000BFBD465DF8047B7047F0
:10489000740E002080B582B000AF786000F052F84E
:1048A000064B1B68012BF9D9054B4FF080521A605B
:1048B000BFF34F8FBFF36F8FF0E700BF9009002069
:1048C00004ED00E080B582B000AF00237B600CE017
:1048D0007A6813469B0013449B00124A13441846FF
:1048E000FEF7B0FC7B6801337B607B68372BEFD928
:1048F0000D48FEF7A7FC0D48FEF7A4FC0C48FEF798
:10490000A1FC0C48FEF79EFC0B48FEF79BFC0B4BF2
:10491000054A1A600A4B054A1A6000BF0837BD46AF
:1049200080BD00BF90090020F00D0020040E002083
:10493000200E0020340E00204C0E0020180E002007
:104940001C0E002080B582B000AF19E000F0E4FD3D
:10495000104BDB68DB687B607B6804331846FEF72E
:10496000FBFC0D4B1B68013B0B4A13600B4B1B6898
:10497000013B0A4A136000F001FE786800F010F86D
:10498000064B1B68002BE1D100BF00BF0837BD46B6
:1049900080BD00BF340E0020600E0020480E0020B5
:1049A00080B584B000AF78607B6893F85930002BF5
:1049B00008D17B681B6B184600F09EFF786800F0FA
:1049C0009BFF19E07B6893F85930012B03D178687D
:1049D00000F092FF10E07B6893F85930022B0BD067
:1049E0004FF0500383F31188BFF36F8FBFF34F8FE6
:1049F000FB6000BF00BFFDE700BF1037BD4680BDB4
:104A000080B483B000AF0C4B1B681B68002B04D133
:104A10000A4B4FF0FF321A6008E0074B1B68DB6857
:104A2000DB687B607B685B68044A136000BF0C37FF
:104A3000BD465DF8047B7047180E0020800E0020F4
:104A400080B483B000AF0B4B1B68002B02D1012355
:104A50007B6008E0084B1B68002B02D102237B60BF
:104A600001E000237B607B6818460C37BD465DF88B
:104A7000047B70476C0E0020880E002080B586B045
:104A800000AF78607B683B6100237B617B68002B13
:104A900058D02F4B1B683A699A420BD04FF0500305
:104AA00083F31188BFF36F8FBFF34F8FFB6000BF9D
:104AB00000BFFDE73B691B6D002B0BD14FF050038E
:104AC00083F31188BFF36F8FBFF34F8FBB6000BFBD
:104AD00000BFFDE73B691B6D5A1E3B691A653B69C8
:104AE000DA6A3B69DB6C9A422CD03B691B6D002B68
:104AF00028D13B6904331846FEF72EFC3B69DA6C7B
:104B00003B69DA623B69DB6AC3F138023B699A614F
:104B10003B69DA6A0F4B1B689A4203D93B69DB6A2F
:104B20000C4A13603B69DA6A13469B0013449B00EE
:104B3000094A1A443B69043319461046FEF7AFFB95
:104B400001237B617B6918461837BD4680BD00BFD5
:104B50008C090020680E00209009002080B584B0E8
:104B600000AF78603960214B1B68FB60204B1B68ED
:104B700004331846FEF7F0FB7B68B3F1FF3F0AD120
:104B80003B68002B07D01A4B1B68043319461948A1
:104B9000FEF785FB26E0FA687B681344BB60144B84
:104BA0001B68BA685A60BA68FB689A4209D2124B0D
:104BB0001A680F4B1B68043319461046FEF793FB27
:104BC00010E00E4B1A680A4B1B6804331946104656
:104BD000FEF789FB0A4B1B68BA689A4202D2084A60
:104BE000BB68136000BF1037BD4680BD640E002057
:104BF0008C0900204C0E00201C0E0020180E0020F6
:104C0000800E002080B58AB004AF00237B6100F0E5
:104C100013FB1D4B1B68002B21D00023FB600023DE
:104C2000BB603A1D07F1080107F10C031846FEF7B7
:104C3000EFFA7968BB68FA68029201930223009345
:104C400000230A4611491248FFF706F90346114AA4
:104C50001360104B1B68002B01D001237B617B6923
:104C6000002B0BD14FF0500383F31188BFF36F8FEC
:104C7000BFF34F8F3B6100BF00BFFDE77B69184664
:104C80001837BD4680BD00BFBC0E0020DCA3000865
:104C9000D14D0008C00E002080B58AB000AFF8608A
:104CA000B9607A603B6000237B62FB68002B0BD10C
:104CB0004FF0500383F31188BFF36F8FBFF34F8F13
:104CC0003B6200BF00BFFDE7194B1B68002B2AD0D9
:104CD000BB683B617B687B61FB68BB61BB68052B84
:104CE00018DCFFF7ADFE0346022B09D1104B186804
:104CF00007F1100100233A6BFEF79EFC786212E088
:104D00000B4B186807F1100100230022FEF794FCFA
:104D1000786208E0064B186807F1100100233A6832
:104D2000FEF78CFD78627B6A18462837BD4680BD49
:104D3000BC0E002080B588B002AF78603960234B8C
:104D40001B68DB68DB687B617B6904331846FEF710
:104D500003FB7B6993F8283003F00403002B23D076
:104D60007B699A697B68D1187B683A68786900F03A
:104D7000D5F80346002B20D00023009300237A6847
:104D800000217869FFF788FF38613B69002B14D157
:104D90004FF0500383F31188BFF36F8FBFF34F8F32
:104DA000FB6000BF00BFFDE77B6993F8283023F06C
:104DB0000103DAB27B6983F828207B691B6A786972
:104DC000984700BF1837BD4680BD00BFB40E002015
:104DD00080B584B000AF786007F10803184600F092
:104DE00059F8F860BB681946F86800F005F800F05B
:104DF000D7F800BFF0E7000080B584B000AF78605E
:104E00003960FFF737FA07F10803184600F066F833
:104E1000F860BB68002B30D13B68002B0AD17A6860
:104E2000FB689A4206D8FFF733FAF9687868FFF70B
:104E300081FF24E03B68002B08D0134B1B681B68E4
:104E4000002B01D1012300E000233B600F4B1868C9
:104E50007A68FB68D31A3A681946FEF7C9FFFFF76C
:104E600017FA0346002B0AD1094B4FF080521A6003
:104E7000BFF34F8FBFF36F8F01E0FFF709FA00BF59
:104E80001037BD4680BD00BFB80E0020BC0E00200C
:104E900004ED00E080B485B000AF78600E4B1B6875
:104EA0001B68002B01D1012200E000227B681A6000
:104EB0007B681B68002B05D1074B1B68DB681B68F0
:104EC000FB6001E00023FB60FB6818461437BD4619
:104ED0005DF8047B704700BFB40E002080B584B03D
:104EE00000AF7860FFF772FAF8600B4B1B68FA6846
:104EF0009A4205D200F03AF97B6801221A6002E07A
:104F00007B6800221A60044AFB681360FB6818463D
:104F10001037BD4680BD00BFC40E002080B586B0EE
:104F200000AFF860B9607A603B6000237B61FB688A
:104F3000BA685A60FB68FA681A61BA687B689A4274
:104F400012D87A683B68D21AFB689B699A4202D3EE
:104F500001237B611BE0104B1A68FB680433194680
:104F60001046FEF7C0F912E07A683B689A4206D212
:104F7000BA683B689A4202D301237B6107E0074B82
:104F80001A68FB68043319461046FEF7ACF97B69D2
:104F900018461837BD4680BDB80E0020B40E00205C
:104FA00080B58EB002AFCEE07B68002B19DA3B1DD6
:104FB0000433FB62FB6A002B0BD14FF0500383F3E9
:104FC0001188BFF36F8FBFF34F8FFB6100BF00BF2E
:104FD000FDE7FB6A1B68FA6A5068FA6A9268114634
:104FE00098477B68002BC0F2AE80FB68BB62BB6A4F
:104FF0005B69002B04D0BB6A04331846FEF7ACF99A
:105000003B461846FFF76AFF78627B68092B00F27F
:10501000978001A252F823F0415000084150000847
:1050200041500008B7500008CB5000081751000845
:105030004150000841500008B7500008CB5000080C
:10504000BB6A93F8283043F00103DAB2BB6A83F8F5
:105050002820BA68BB6A9B69D118BB687A6AB86AAB
:10506000FFF75CFF0346002B6CD0BB6A1B6AB86A73
:105070009847BB6A93F8283003F00403002B61D0F3
:10508000BA68BB6A9B691A4400230093002300217D
:10509000B86AFFF701FE38623B6A002B52D14FF02D
:1050A000500383F31188BFF36F8FBFF34F8FBB6142
:1050B00000BF00BFFDE7BB6A93F8283023F001036F
:1050C000DAB2BB6A83F828203DE0BB6A93F8283047
:1050D00043F00103DAB2BB6A83F82820BA68BB6ADE
:1050E0009A61BB6A9B69002B0BD14FF0500383F38D
:1050F0001188BFF36F8FBFF34F8F7B6100BF00BF7D
:10510000FDE7BB6A9A697B6AD1187B6A7A6AB86ADA
:10511000FFF704FF17E0BB6A93F8283003F002039F
:10512000002B03D1B86A00F0E7FB0CE0BB6A93F8F0
:10513000283023F00103DAB2BB6A83F8282002E0AA
:1051400000BF00E000BF084B1B68391D0022184655
:10515000FEF712FC0346002B7FF426AF00BF00BF12
:105160003037BD4680BD00BFBC0E002080B588B082
:1051700002AF49E02E4B1B68DB681B683B612C4B80
:105180001B68DB68DB68FB60FB6804331846FEF7CE
:10519000E3F8FB681B6AF8689847FB6893F82830C7
:1051A00003F00403002B2FD0FB689B693A6913447A
:1051B000BB60BA683B699A420ED9FB68BA685A600C
:1051C000FB68FA681A611A4B1A68FB6804331946BF
:1051D0001046FEF788F817E00023009300233A6991
:1051E0000021F868FFF758FD78607B68002B0BD131
:1051F0004FF0500383F31188BFF36F8FBFF34F8FCE
:105200003B6000BF00BFFDE7094B1B681B68002B1C
:10521000B0D1074B1B687B61064B1B68044A1360C7
:10522000044A7B69136000BF1837BD4680BD00BFCC
:10523000B40E0020B80E002080B582B002AF00F09E
:105240006BF9154B1B68002B20D11448FDF7FAFFB2
:105250001348FDF7F7FF134B104A1A60124B104A20
:105260001A6000230093114B114A10210A20FEF707
:1052700007F90346084A1360074B1B68002B05D04B
:10528000054B1B680B491846FEF788FD00F076F9C0
:1052900000BFBD4680BD00BFBC0E00208C0E0020AC
:1052A000A00E0020B40E0020B80E0020680F0020D1
:1052B000C80E0020E4A3000880B485B000AFF860F9
:1052C000B9607A60FB68043BFB60FB684FF080725A
:1052D0001A60FB68043BFB60BB6823F00102FB68BB
:1052E0001A60FB68043BFB600C4AFB681A60FB68B1
:1052F000143BFB607A68FB681A60FB68043BFB6048
:10530000FB686FF002021A60FB68203BFB60FB68E1
:1053100018461437BD465DF8047B704721530008DA
:1053200080B485B000AF00237B60134B1B68B3F1E2
:10533000FF3F0BD04FF0500383F31188BFF36F8F03
:10534000BFF34F8FFB6000BF00BFFDE74FF050037E
:1053500083F31188BFF36F8FBFF34F8FBB6000BF24
:1053600000BF7B68002BFCD000BF00BF1437BD46D8
:105370005DF8047B704700BF0C00002000000000B7
:10538000074B19680868B0E8F04F80F30988BFF34D
:105390006F8F4FF0000080F311887047AFF30080EB
:1053A0008C09002000BF00BF08480068006880F337
:1053B00008884FF0000080F3148862B661B6BFF32E
:1053C0004F8FBFF36F8F00DF00BF00BF08ED00E01D
:1053D00080B586B000AF474B1B68474A93420BD15C
:1053E0004FF0500383F31188BFF36F8FBFF34F8FDC
:1053F0003B6100BF00BFFDE73E4B1B683F4A934245
:105400000BD14FF0500383F31188BFF36F8FBFF3BD
:105410004F8FFB6000BF00BFFDE7394B7B617B69AD
:105420001B78DBB27B607B69FF221A707B691B787B
:10543000DBB2FB70FB78DBB203F05003DAB2314B26
:105440001A70314B07221A6009E02F4B1B68013B91
:105450002D4A1360FB78DBB25B00DBB2FB70FB789C
:10546000DBB203F08003802BEFD0274B1B68C3F126
:105470000703042B0BD04FF0500383F31188BFF3C5
:105480006F8FBFF34F8FBB6000BF00BFFDE71E4BA8
:105490001B681B021C4A13601B4B1B6803F4E06370
:1054A000194A13607B68DAB27B691A70174B1B6864
:1054B000164A43F470031360144B1B68134A43F0FD
:1054C0007043136000F0DAF8114B00221A6000F00C
:1054D000F9F8104B1B680F4A43F040431360FFF785
:1054E00063FFFFF73DF8FFF71BFF0023184618374F
:1054F000BD4680BD00ED00E071C20F4170C20F419A
:1055000000E400E0B80F0020BC0F002020ED00E018
:105510000C00002034EF00E080B483B000AF4FF007
:10552000500383F31188BFF36F8FBFF34F8F7B60FE
:1055300000BF104B1B6801330E4A13600D4B1B68F4
:10554000012B10D10C4B1B68DBB2002B0BD04FF0A2
:10555000500383F31188BFF36F8FBFF34F8F3B600E
:1055600000BF00BFFDE700BF0C37BD465DF8047B00
:10557000704700BF0C00002004ED00E080B483B051
:1055800000AF124B1B68002B0BD14FF0500383F37D
:105590001188BFF36F8FBFF34F8F7B6000BF00BFD9
:1055A000FDE70A4B1B68013B084A1360074B1B6869
:1055B000002B05D100233B603B6883F3118800BFBB
:1055C00000BF0C37BD465DF8047B70470C0000201F
:1055D000EFF30980BFF36F8F154B1A681EF0100FA1
:1055E00008BF20ED108A20E9F04F10602DE9090076
:1055F0004FF0500080F31188BFF34F8FBFF36F8FD0
:10560000FEF7AEFF4FF0000080F3118809BC196867
:105610000868B0E8F04F1EF0100F08BFB0EC108A19
:1056200080F30988BFF36F8F704700BFAFF300802E
:105630008C09002000BF00BF80B582B000AF4FF0E2
:10564000500383F31188BFF36F8FBFF34F8F7B60DD
:1056500000BFFEF7CBFE0346002B03D0064B4FF0F6
:1056600080521A6000233B603B6883F3118800BFBF
:1056700000BF0837BD4680BD04ED00E080B400AF38
:105680000B4B00221A600B4B00221A600A4B1B685E
:105690000A4AA2FB03239B09094A013B1360044BFE
:1056A00007221A6000BFBD465DF8047B704700BF4B
:1056B00010E000E018E000E000000020D34D621090
:1056C00014E000E0DFF80C00016841F470010160B3
:1056D000704700BF88ED00E080B485B000AFEFF305
:1056E0000583FB60FB680F2B15D9184AFB68134430
:1056F0001B78FB72164B1B78FA7A9A420BD24FF04A
:10570000500383F31188BFF36F8FBFF34F8F7B601C
:1057100000BF00BFFDE70F4B1B6803F4E0620E4BB8
:105720001B689A420BD94FF0500383F31188BFF3E3
:105730006F8FBFF34F8F3B6000BF00BFFDE700BF1F
:105740001437BD465DF8047B704700BFF0E300E00E
:10575000B80F00200CED00E0BC0F002080B58AB02F
:1057600000AF78600023FB61FEF784FD5C4B1B6893
:10577000002B01D100F024F95A4B1A687B681340C2
:10578000002B40F095807B68002B1ED008227B68A0
:1057900013447B607B6803F00703002B15D07B6804
:1057A00023F0070308337B607B6803F00703002BBB
:1057B0000BD04FF0500383F31188BFF36F8FBFF30B
:1057C0004F8F7B6100BF00BFFDE77B68002B6FD070
:1057D000454B1B687A689A426AD8444B3B62434BFC
:1057E0001B687B6204E07B6A3B627B6A1B687B62AE
:1057F0007B6A5B687A689A4203D97B6A1B68002BD4
:10580000F1D1374B1B687A6A9A4251D03B6A1B68C8
:1058100008221344FB617B6A1A683B6A1A607B6A40
:105820005A687B68D21A08235B009A4220D97A6AA8
:105830007B681344BB61BB6903F00703002B0BD0EB
:105840004FF0500383F31188BFF36F8FBFF34F8F77
:105850003B6100BF00BFFDE77B6A5A687B68D21AD4
:10586000BB695A607B6A7A685A60B86900F00AF9C5
:105870001D4B1A687B6A5B68D31A1B4A13601A4B6C
:105880001A681B4B1B689A4203D2174B1B68184AB5
:1058900013607B6A5A68134B1B681A437B6A5A6011
:1058A0007B6A00221A60134B1B680133114A136094
:1058B000FEF7EEFCFB6903F00703002B0BD04FF063
:1058C000500383F31188BFF36F8FBFF34F8FFB60DB
:1058D00000BF00BFFDE7FB6918462837BD4680BD05
:1058E000C84B0020DC4B0020CC4B0020C04B0020DC
:1058F000D04B0020D44B002080B586B000AF78603C
:105900007B687B617B68002B4FD008235B427A6900
:1059100013447B617B693B613B695A68254B1B687B
:105920001340002B0BD14FF0500383F31188BFF3CA
:105930006F8FBFF34F8FFB6000BF00BFFDE73B6978
:105940001B68002B0BD04FF0500383F31188BFF37B
:105950006F8FBFF34F8FBB6000BF00BFFDE73B6998
:105960005A68144B1B681340002B1ED03B691B6800
:10597000002B1AD13B695A680E4B1B68DB431A4057
:105980003B695A60FEF776FC3B695A680A4B1B6814
:105990001344094A1360386900F074F8074B1B6818
:1059A0000133064A1360FEF773FC00BF1837BD468B
:1059B00080BD00BFDC4B0020CC4B0020D84B00202A
:1059C00080B485B000AF4FF47053BB60274BFB60D1
:1059D000FB6803F00703002B0CD0FB680733FB6068
:1059E000FB6823F00703FB60BA68FB68D31A1F4A01
:1059F0001344BB60FB687B601D4A7B6813601C4BD3
:105A000000225A607B68BA681344FB600822FB6876
:105A10009B1AFB60FB6823F00703FB60FB68154AD9
:105A20001360144B1B6800225A60124B1B68002243
:105A30001A607B683B603B68FA68D21A3B685A6020
:105A40000C4B1A683B681A603B685B680A4A136033
:105A50003B685B68094A1360094B4FF000421A60CB
:105A600000BF1437BD465DF8047B7047C00F0020AF
:105A7000C04B0020C84B0020D04B0020CC4B002056
:105A8000DC4B002080B485B000AF7860284BFB6011
:105A900002E0FB681B68FB60FB681B687A689A423F
:105AA000F7D8FB68BB60FB685B68BA6813447A6828
:105AB0009A4208D1FB685A687B685B681A44FB68A5
:105AC0005A60FB687B607B68BB607B685B68BA6818
:105AD0001A44FB681B689A4218D1FB681A68154B78
